:020000040000FA
:10800000007000206D8B00007F8B0000818B0000D2
:10801000838B0000858B0000878B00000000000030
:10802000000000000000000000000000A98A00001D
:108030008B8B000000000000418B0000518B000082
:10804000918B0000918B0000918B0000918B0000C0
:10805000918B0000918B0000918B0000918B0000B0
:10806000918B0000918B0000918B0000918B0000A0
:10807000918B0000918B0000918B0000918B000090
:1083F000918B0000918B0000918B0000FFFFFFFF2D
:020000040000FA
:10840000424D55205333324B31303000FE7FFFFF59
:020000040000FA
:1084100000F002F800F06AF80AA090E8000C82442C
:108420008344AAF10107DA4501D100F05FF8AFF209
:10843000090EBAE80F0013F0010F18BFFB1A43F042
:108440000103184704530100645301000A444FF02C
:10845000000C10F8013B13F0070408BF10F8014BA3
:108460001D1108BF10F8015B641E05D010F8016BE8
:10847000641E01F8016BF9D113F0080F1EBF10F84C
:10848000014BAD1C0C1B09D16D1E58BF01F801CB6F
:10849000FAD505E014F8016B01F8016B6D1EF9D5F2
:1084A0009142D6D370470000103A24BF78C878C1F3
:1084B000FAD8520724BF30C830C144BF04680C60EA
:1084C000704700000023002400250026103A28BF32
:1084D00078C1FBD8520728BF30C148BF0B60704736
:1084E0001FB514F017FD1FBD10B510BDDFF814D077
:1084F00003B411F0C8FE03BCFFF7F2FF12F072FDE7
:1085000000F018FC0070002003B4FFF7EDFF03BC7F
:1085100000F01AFC0246D2E84F0FC2E8431F03B135
:10852000F9E77047024652E8000F40EA010042E8CE
:10853000000303B1F7E7704710B5024652E8000F99
:1085400020EA010442E8004303B1F7E710BD10B58B
:10855000024652E8000F00EA01048C4203D0BFF348
:108560002F8F002010BD20EA010442E8004303B130
:10857000EFE710BD10B5024652E8000F084203D1E4
:10858000BFF32F8F002010BD20EA010442E8004312
:1085900003B1F1E710BD024652E8000F411C42E86A
:1085A000001303B1F8E7704710B50246D2E85F0F39
:1085B000814202D8BFF32F8F10BD441CC2E8534F35
:1085C00003B1F3E710BD10B50246D2E85F0F441CBB
:1085D000A14200D80024C2E8534F03B1F5E710BD13
:1085E000024652E8000F411E42E8001303B1F8E7CB
:1085F0007047024652E8000F10B9BFF32F8F704743
:10860000411E42E8001303B1F4E770470246D2E886
:108610005F0F10B9BFF32F8F7047411EC2E8531F81
:1086200003B1F4E77047024652E8000F10B9BFF3F8
:108630002F8F7047016842E8001303B1F4E77047D9
:1086400002680A60BFF35F8F50E8002F0B68934207
:10865000F6D140E8001303B1F2E770470246D2E8D2
:108660004F0FC2E8431F03B1F9E77047024652E8D3
:10867000000F40EA010042E8000303B1F7E770474A
:1086800010B5024652E8000F20EA010442E8004318
:1086900003B1F7E710BD10B5024652E8000F00EA3B
:1086A00001048C4203D0BFF32F8F002010BD20EABD
:1086B000010442E8004303B1EFE710BD10B50246E4
:1086C00052E8000F084203D1BFF32F8F002010BDE6
:1086D00020EA010442E8004303B1F1E710BD02467D
:1086E00052E8000F411C42E8001303B1F8E770475D
:1086F00010B50246D2E85F0F814202D8BFF32F8F38
:1087000010BD441CC2E8534F03B1F3E710BD10B5D0
:108710000246D2E85F0F441CA14200D80024C2E800
:10872000534F03B1F5E710BD024652E8000F411E5A
:1087300042E8001303B1F8E77047024652E8000F21
:1087400010B9BFF32F8F7047411E42E8001303B1E9
:10875000F4E770470246D2E85F0F10B9BFF32F8FDE
:108760007047411EC2E8531F03B1F4E77047024649
:1087700052E8000F10B9BFF32F8F7047016842E82D
:10878000001303B1F4E7704702680A60BFF35F8F1C
:1087900050E8002F0B689342F6D140E8001303B174
:1087A000F2E770470246D2E84F0FC2E8431F03B119
:1087B000F9E77047024652E8000F40EA010042E83C
:1087C000000303B1F7E7704710B5024652E8000F07
:1087D00020EA010442E8004303B1F7E710BD10B5F9
:1087E000024652E8000F00EA01048C4203D0BFF3B6
:1087F0002F8F002010BD20EA010442E8004303B19E
:10880000EFE710BD10B5024652E8000F084203D151
:10881000BFF32F8F002010BD20EA010442E800437F
:1088200003B1F1E710BD024652E8000F411C42E8D7
:10883000001303B1F8E7704710B50246D2E85F0FA6
:10884000814202D8BFF32F8F10BD441CC2E8534FA2
:1088500003B1F3E710BD10B50246D2E85F0F441C28
:10886000A14200D80024C2E8534F03B1F5E710BD80
:10887000024652E8000F411E42E8001303B1F8E738
:108880007047024652E8000F10B9BFF32F8F7047B0
:10889000411E42E8001303B1F4E770470246D2E8F4
:1088A0005F0F10B9BFF32F8F7047411EC2E8531FEF
:1088B00003B1F4E77047024652E8000F10B9BFF366
:1088C0002F8F7047016842E8001303B1F4E7704747
:1088D00002680A60BFF35F8F50E8002F0B68934275
:1088E000F6D140E8001303B1F2E770470246D2E840
:1088F0004F0FC2E8431F03B1F9E77047024652E841
:10890000000F40EA010042E8000303B1F7E77047B7
:1089100010B5024652E8000F20EA010442E8004385
:1089200003B1F7E710BD10B5024652E8000F00EAA8
:1089300001048C4203D0BFF32F8F002010BD20EA2A
:10894000010442E8004303B1EFE710BD10B5024651
:1089500052E8000F084203D1BFF32F8F002010BD53
:1089600020EA010442E8004303B1F1E710BD0246EA
:1089700052E8000F411C42E8001303B1F8E77047CA
:1089800010B50246D2E85F0F814202D8BFF32F8FA5
:1089900010BD441CC2E8534F03B1F3E710BD10B53E
:1089A0000246D2E85F0F441CA14200D80024C2E86E
:1089B000534F03B1F5E710BD024652E8000F411EC8
:1089C00042E8001303B1F8E77047024652E8000F8F
:1089D00010B9BFF32F8F7047411E42E8001303B157
:1089E000F4E770470246D2E85F0F10B9BFF32F8F4C
:1089F0007047411EC2E8531F03B1F4E770470246B7
:108A000052E8000F10B9BFF32F8F7047016842E89A
:108A1000001303B1F4E7704702680A60BFF35F8F89
:108A200050E8002F0B689342F6D140E8001303B1E1
:108A3000F2E770470246D2E84F0F411CC2E8431FDD
:108A400003B1F8E77047024652E8000F411C42E8C4
:108A5000001303B1F8E77047024652E8000F42E8FE
:108A6000001303B1F9E77047024652E8000F830193
:108A700003D3BFF32F8F0020704700F0004008435E
:108A800042E8000303B1F0E77047024652E8000FE6
:108A9000800103D2BFF32F8F0020704742E80013FC
:108AA00003B1F3E7012070471EF0040F0CBFEFF392
:108AB0000880EFF30980816911F8021C91BB01B5B0
:108AC00090E80F10E047BDE800508CE80300244B0D
:108AD00093E80600914208BF704741B91EF0100F9D
:108AE00010D12049086820F0010008600AE02CE954
:108AF000F00F1EF0100F08BF2CED108AC1F838C01F
:108B000081F822E01A6092F82210906B61F0FF0E5B
:108B10001EF0100F08BFB0EC108AB0E8F00F80F321
:108B200009887047104A13689942FAD801B552F87B
:108B300021C00FC8E047BDE80050CCF800007047E6
:108B400001B512F009FFBDE80140EFF3098CBEE763
:108B500001B513F0F7F9BDE80140EFF3098CB6E772
:108B60005809002034EF00E06CD60100094872B6C5
:108B7000094880470948804762B609480047FEE730
:108B8000FEE7FEE7FEE7FEE7FEE7FEE7FEE7FEE7BD
:108B9000FEE7000000840000997E010019AE01008C
:108BA00011840000032A40F2308010F0030C00F022
:108BB000158011F8013BBCF1020F624498BF11F817
:108BC00001CB00F8013B38BF11F8013BA2F10402D0
:108BD00098BF00F801CB38BF00F8013B11F0030348
:108BE00000F07680083AC0F0088051F8043B083A5B
:108BF00051F804CBA0E80810F5E7121D5CBF51F84E
:108C0000043B40F8043BAFF30080D20724BF11F8C7
:108C1000013B11F801CB48BF11F8012B24BF00F82C
:108C2000013B00F801CB48BF00F8012B704702F070
:108C3000FF0343EA032242EA024200F002B84FF087
:108C400000020429C0F0128010F0030C00F01B8019
:108C5000CCF1040CBCF1020F18BF00F8012BA8BF27
:108C600020F8022BA1EB0C0100F00DB85FEAC17CEB
:108C700024BF00F8012B00F8012B48BF00F8012B9E
:108C800070474FF0000200B51346944696462039CF
:108C900022BFA0E80C50A0E80C50B1F12001BFF4B5
:108CA000F7AF090728BFA0E80C5048BF0CC05DF81B
:108CB00004EB890028BF40F8042B08BF704748BF69
:108CC00020F8022B11F0804F18BF00F8012B7047DD
:108CD00010B5203AC0F00B80B1E81850203AA0E857
:108CE0001850B1E81850A0E81850BFF4F5AF5FEA8B
:108CF000027C24BFB1E81850A0E8185044BF18C93E
:108D000018C0BDE810405FEA827C24BF51F8043BE4
:108D100040F8043B08BF7047D20728BF31F8023B38
:108D200048BF11F8012B28BF20F8023B48BF00F8CC
:108D3000012B704710B50446AFF300802046BDE814
:108D40001040FFF7E1BB704701491820ABBEFEE7BA
:108D50002600020040F2010CC2F2000C6047000045
:108D60000020234908602249B439C1F8B8002049DD
:108D700008310860091D0860091D0860091D0860A8
:108D80001B49B439C1F8CC000846D0F8940040F033
:108D9000800017492039086000BF15482038006856
:108DA00000F080000028F8D1124908601149B43958
:108DB000C1F8B8000F4908310860091D0860091D95
:108DC0000860091D08600B49B439C1F8CC00084699
:108DD000D0F8940040F0800006492039086000BFB8
:108DE00004482038006800F080000028F8D170475F
:108DF000B4B00340B4700240CE4A1268CE4B1B6838
:108E0000D01ACE4A11781278202A7DD006DC102A9A
:108E100009D0152A79D01A2A31D129E1252A2FD053
:108E20002A2AF9D18CE0C64A92F94120C54B1B6829
:108E3000B3F938309A4208DAC34A12880323B3EBF5
:108E4000123F02DD2522BD4B1A70BD4A92F9402027
:108E5000BC4B1B68B3F900309A4208DBBA4A12884F
:108E60000323B3EB123F02DD2A22B44B1A704FF4F6
:108E70008072B64B1A601201B54BC3F808214EE15F
:108E8000AF4A92F94120AF4B1B68B3F93A309A428E
:108E90000BDCAD4A12880323B3EB123F05DDB0F5BE
:108EA0007A7F02D91522A54B1A70A54A92F9413052
:108EB000A44A1268B2F90C20521D934205DAA24A64
:108EC00012880323B3EB123F02DC10229B4B1A7073
:108ED0009B4A92F940209B4B1B68B3F900309A42A1
:108EE00008DB994A12880323B3EB123F02DD2A22E2
:108EF000924B1A70964A1269C2F3C02252B1904A3C
:108F0000528C1E2A13DC01E0EDE076E020228B4B30
:108F10001A700CE08A4A528C0A2392FBF3F28D4BB2
:108F20001B689B8B9A4202DC2022844B1A704FF400
:108F30008072864B1A601201854BC3F80821EEE05F
:108F40007F4A92F940207F4B1B68B3F900309A4268
:108F50000BDB7D4A12880323B3EB123F05DDB0F52E
:108F60007A7F02D91A22754B1A70754A92F94030ED
:108F7000744A1268B2F90220521F934205DB724A0A
:108F800012880323B3EB123F02DC10226B4B1A70E2
:108F90006B4A92F941206B4B1B68B3F938309A4207
:108FA00008DA694A12880323B3EB123F02DD252257
:108FB000624B1A70664A1269C2F3C0223AB1604A23
:108FC000528C1E2A10DC20225C4B1A700CE05C4A8A
:108FD000528C0A2392FBF3F25E4B1B689B8B9A42E6
:108FE00002DC2022554B1A704FF48072574B1A60E6
:108FF0001201574BC3F8082191E04FF48072534B94
:109000001B1F1A604E4A92F941204E4B1B68B3F960
:109010000C309A4205DA4C4A12880323B3EB123F14
:1090200002DC2522454B1A70494A1269C2F3C0225C
:109030003AB1434A528C1E2A10DC20223F4B1A7050
:109040000CE03F4A528C0A2392FBF3F2414B1B681F
:109050009B8B9A4202DC2022384B1A703A4A1288C3
:109060000323B3EB123F02DC1022344B1A7056E09C
:109070004FF48052354B1B1F1A60314A92F9402041
:10908000304B1B68B3F902309A4208DC2E4A128832
:109090000323B3EB123F02DD2A22284B1A702C4A1D
:1090A0001269C2F3C0223AB1254A528C1E2A10DC42
:1090B0002022224B1A700CE0214A528C0A2392FB88
:1090C000F3F2244B1B689B8B9A4202DC20221B4B41
:1090D0001A701D4A12880323B3EB123F02DC1022E0
:1090E000164B1A701BE0164A528C0A2392FBF3F2BD
:1090F000184B1B689B8B9A4205DC134A128803238A
:10910000B3EB123F02DC10220C4B1A704FF480724A
:109110000E4B1A6012010E4BC3F8082100BF00BFAE
:10912000064A1278914203D0024A1268024B1A6032
:10913000704700001806002024030020D2060020FB
:10914000F0B6FF1F100700204CBCFF1F08F10F40B6
:1091500000F00F400807002070B50346002A69DDC3
:10916000D61702EB9676B610A2EB860636B11446F9
:10917000D61702EB9676B610701C04E01446D6178C
:1091800002EB9676B010C0F30E062B4CA4F89E614D
:10919000C0F30E06A4F896610426C4F88861274E31
:1091A000C4F880610026A4F8846140F20226A4F885
:1091B00086610026C4F88C61C4F890110426A4F8D6
:1091C0009461840066421C4CC4F898610826A4F897
:1091D0009C61C0F30E06A4F87E61C0F30E06A4F8ED
:1091E00076610426C4F86861C4F86031A4F864614B
:1091F00040F20226A4F86661840066420E4CC4F870
:109200006C610E4E103EC4F870610026A4F87461C3
:10921000C4F878610826A4F87C610124C4EBC20577
:10922000A5F11F54054E743E34660C24044EF476AA
:109230000B24F47670BD00000090004074C0024022
:109240000080004010B5FC480068152871D011DC82
:1092500009286FD007DCF0B1012859D003286AD063
:10926000062854D1EDE00B2874D00E2873D01228B4
:10927000F7D1B1E223286FD006DC1A286DD01B2865
:109280006CD01F28EDD186E3252868D0282867D028
:109290002D28E6D1E9E3E948006820B1012810D083
:1092A000022833D11BE00020E5490870AA2048704D
:1092B00055208870AA20C87004220846FFF74CFF8A
:1092C00024E00020DE490870AA20487055208870EC
:1092D000AA20C87004220846FFF73EFF16E0D948CE
:1092E000406820F00C00001DD6494860D448D6499B
:1092F00009680160072008F0B5FD8422D0490846BE
:10930000FFF72AFF0120CC49086000BF00BF62E2DE
:10931000CA48006820B101280ED002282DD120E0D3
:10932000C748CA490968016004220146FFF714FFD3
:1093300023E059E2EBE122E00020C1490870AA20B5
:10934000487055208870AA20C87004220846FFF78C
:1093500003FF12E0C4E056E1D9E3F2E2DBE2F3E31B
:10936000F3E3B748BA490968016084220146FFF770
:10937000F3FE0320B049086000BF00BFC7E7B14853
:109380000068C0F3006008B902F0D8F9AD48006881
:10939000C0F30060C8B3A948006830B101280DD0FF
:1093A000022819D003282FD11FE0A548A949096830
:1093B000016004220146FFF7CFFE25E00020A0490E
:1093C0000870AA20487055208870AA20C87004220E
:1093D0000846FFF7C1FE17E099489F4909680160F8
:1093E00084220146FFF7B8FE0EE0002002F046F9A5
:1093F00093489A490968016084220146FFF7ACFE50
:1094000006208D49086000BF1AE0FFE78D480088FC
:10941000000A401C8B49096860F30F2189480160EC
:10942000012085490860002085490870AA204870FD
:1094300055208870AA20C87004220846FFF78CFEC9
:1094400065E780480068C0F38150012801D102F02F
:1094500015F97C480068C0F3815002281FD1774875
:10946000006810B1012819D10CE0754876490968E7
:109470000160072008F0F6FC842271490846FFF7D6
:109480006BFE0BE06E487649096801608422014654
:10949000FFF762FE0B206849086000BF1FE06948C3
:1094A0000088000A401C6749096860F30F2165487D
:1094B00001600320604908606248006820F44000B1
:1094C0006049086000205E490870AA204870552055
:1094D0008870AA20C87004220846FFF73DFE16E7F0
:1094E00058480068C00F10B9072002F087F85548A7
:1094F00000680121B1EBD07F6AD15048006807288D
:1095000065D2DFE800F0040D1B29323E4F004C48C5
:1095100054490968016004220146FFF71DFE56E028
:10952000002047490870AA20487055208870AA205A
:10953000C87004220846FFF70FFE48E000204049AB
:109540000870AA20487055208870AA20C87004228C
:109550000846FFF701FE3AE03948434909680160CF
:1095600084220146FFF7F8FD31E0002002F0A4F963
:1095700033483E490968016084220146FFF7ECFD4B
:1095800025E030480068C0F34160012801D102F0B5
:1095900093F92B4836490968016084220146FFF798
:1095A000DBFD14E027480068C0F34160012802D1C8
:1095B000022002F081F922482E49096801608422C4
:1095C0000146FFF7C9FD0E201B49086000BF19E0E6
:1095D0001C480088000A401C1A49096860F30F21E2
:1095E00018480160062014490860002014490870DA
:1095F000AA20487055208870AA20C8700422084606
:10960000FFF7AAFD83E60F480068C0F34160012818
:1096100002D1032002F050F90A480068C0F341600B
:10962000022859D10548006830B301282DD00228FE
:1096300039D003284FD13FE05893FF1F5C93FF1FA1
:109640006CB6FF1FF0B6FF1F1CD2010078D20100DC
:1096500040D2010054D2010034D2010038D20100BE
:1096600020D2010044D2010024D2010028D20100FE
:109670002CD2010030D20100FC48FD49096801608C
:1096800004220146FFF768FD25E00020F749087035
:10969000AA20487055208870AA20C8700422084665
:1096A000FFF75AFD17E0F148F2490968016084228A
:1096B0000146FFF751FD0EE0002002F0A9F8EB484B
:1096C000ED490968016084220146FFF745FD092044
:1096D000EA49086000BF19E0E9480088000A401C18
:1096E000E749096860F30F21E54801600B20E34971
:1096F00008600020DD490870AA2048705520887055
:10970000AA20C87004220846FFF726FD7CE3DC4847
:109710000068C0F3C160012801D102F079F8D8488F
:109720000068C0F3C16002283BD1D648006830B160
:1097300001280DD0022819D0032831D124E0CB48CC
:10974000D1490968016004220146FFF705FD27E0C1
:109750000020C6490870AA20487055208870AA20A9
:10976000C87004220846FFF7F7FC19E00020BF4943
:109770000870AA20487055208870AA20C87004225A
:109780000846FFF7E9FC0BE0B848C04909680160EA
:1097900084220146FFF7E0FC1220B849086000BFB0
:1097A00019E0B7480088000A401CB549096860F311
:1097B0000F21B34801600E20B04908600020AB497A
:1097C0000870AA20487055208870AA20C87004220A
:1097D0000846FFF7C1FC17E3A948007900F0030031
:1097E00008B907F0BFF900BFA648006807280DD2E6
:1097F000DFE800F0040D1B2932506E009B48A4499D
:109800000968016004220146FFF7A6FC81E0002000
:1098100096490870AA20487055208870AA20C87000
:1098200004220846FFF798FC73E000208F49087077
:10983000AA20487055208870AA20C87004220846C3
:10984000FFF78AFC65E08948924909680160842233
:109850000146FFF781FC5CE000200AF059FB40B1B3
:1098600082488D490968016084220146FFF774FC33
:109870000FE000207D490870AA20487055208870AC
:10988000AA20C87004220846FFF766FC1A207B490C
:1098900008603EE001200AF03BFB40B173487F497D
:1098A0000968016084220146FFF756FC0FE00020A2
:1098B0006E490870AA20487055208870AA20C87088
:1098C00004220846FFF748FC1A206C49086020E093
:1098D00002200AF01DFB58B1644871490968016013
:1098E00084220146FFF738FC1B20644908600FE022
:1098F00000205E490870AA20487055208870AA2070
:10990000C87004220846FFF727FC1A205B4908604C
:1099100000BF00BF78E203200AF0FAFA00205349A2
:109920000870AA20487055208870AA20C8700422A8
:109930000846FFF711FC0AF08DFC1A204F49086019
:1099400062E25048006810B1012822D115E0474872
:109950005449096801604A490979C1F3021008F0C5
:1099600081FA842241490846FFF7F6FB4448006823
:1099700020F00040424908600BE03C484A49096831
:10998000016084220146FFF7E7FB1F203B49086086
:1099900000BF00BF38E23A480068C00F28B9384914
:1099A0000979C1F3021001F029FE35480068012150
:1099B000B1EBD07F7AD13248006820F47F40304943
:1099C00008603048006805280CD2DFE800F0030C7E
:1099D0001A28310025482C490968016004220146F3
:1099E000FFF7BAFB77E0002020490870AA204870F2
:1099F00055208870AA20C87004220846FFF7ACFBE7
:109A000069E0002019490870AA2048705520887024
:109A1000AA20C87004220846FFF79EFB5BE01348AB
:109A20001A490968016084220146FFF795FB52E05C
:109A300013490979C1F3021009F048FE48B11048F2
:109A400000790009401C0E49496860F306110C4872
:109A50004160002005490870AA2048705520887090
:109A6000AA20C8700422084621E02EE16CB6FF1F30
:109A700058D201003CD2010040D201005893FF1F90
:109A8000F0B6FF1F5C93FF1F5CD2010038D20100CB
:109A900050D2010024D2010028D201002CD20100B2
:109AA00030D201001CD2010020D2010014E0FFF7E7
:109AB00053FBE0480068401CDE4908600846007817
:109AC00000F00F0018B92320DB49086002E01520E0
:109AD000D949086000BF19E0D8480088000A401C36
:109AE000D649096860F30F21D44801601A20D24991
:109AF00008600020D2490870AA204870552088705C
:109B0000AA20C87004220846FFF726FB7CE1CD4856
:109B1000006810B1012815D108E0C948CA49096890
:109B2000016004220146FFF717FB0BE0C448C64959
:109B30000968016004220146FFF70EFB2520BE499B
:109B4000086000BF00BF5FE100E08CE0BD48006836
:109B5000062811D2DFE800F003111F284664002018
:109B6000B7490870AA20487055208870AA20C8708C
:109B700004220846FFF7F0FA73E00020B0490870AD
:109B8000AA20487055208870AA20C8700422084670
:109B9000FFF7E2FA65E0AA48AC490968016084224F
:109BA0000146FFF7D9FA5CE0002009F06BFC40B1F8
:109BB000A348A7490968016084220146FFF7CCFA4F
:109BC0000FE000209E490870AA2048705520887038
:109BD000AA20C87004220846FFF7BEFA152096494D
:109BE00008603EE0012009F04DFC40B194489949DD
:109BF0000968016084220146FFF7AEFA0FE00020F9
:109C00008F490870AA20487055208870AA20C87013
:109C100004220846FFF7A0FA15208749086020E0D3
:109C2000022009F02FFC58B185488B490968016072
:109C300084220146FFF790FA28207F4908600FE050
:109C400000207F490870AA20487055208870AA20FB
:109C5000C87004220846FFF77FFA1520764908608D
:109C600000BF00BFD0E07748006810B101282AD1BA
:109C70001DE0032009F006FC40B1714877490968EE
:109C8000016004220146FFF767FA0FE000206C49EB
:109C90000870AA20487055208870AA20C870042235
:109CA0000846FFF759FA1520634908600BE064483D
:109CB0006A490968016004220146FFF74DFA2D2028
:109CC0005D49086000BF00BF9EE05E48006807284D
:109CD00012D2DFE800F0041220294765830000203B
:109CE00057490870AA20487055208870AA20C8706B
:109CF00004220846FFF730FA84E00020504908703B
:109D0000AA20487055208870AA20C87004220846EE
:109D1000FFF722FA76E04A484C490968016084223C
:109D20000146FFF719FA6DE0002001F043FE40B153
:109D3000434847490968016084220146FFF70CFA4D
:109D40000FE000203E490870AA2048705520887016
:109D5000AA20C87004220846FFF7FEF915203649EC
:109D600008604FE0012001F025FE40B13448394938
:109D70000968016084220146FFF7EEF90FE0002038
:109D80002F490870AA20487055208870AA20C870F2
:109D900004220846FFF7E0F915202749086031E062
:109DA000022001F007FE40B125482B4909680160F7
:109DB00084220146FFF7D0F90FE000202049087007
:109DC000AA20487055208870AA20C870042208462E
:109DD000FFF7C2F915201849086013E0032001F0CD
:109DE000E9FD002016490870AA20487055208870A7
:109DF000AA20C87004220846FFF7AEF915200E49C4
:109E0000086000BF00BF00BF00BF154800680A49D6
:109E10000968884207D00848006811490860002096
:109E20000849086004E007480068401C05490860CC
:109E300010BD00006493FF1F5893FF1FF0B6FF1F73
:109E40006CB6FF1F5C93FF1F4CD2010024D20100AF
:109E500028D201002CD2010030D2010048D20100EA
:109E60006093FF1F70B50020A8490860A8480088CB
:109E700000287AD0A64800884EF66021884276DA1B
:109E80004FF6FF70A2490880002456E00020A14947
:109E9000085500254DE004EB44009F4901EBC0004C
:109EA00030F815009D4909889D4A1268114488427E
:109EB00030D904EB4400984901EBC00030F815009C
:109EC00096490988401A00EB40000601B6F5FA4FA2
:109ED00009DD4FF4FA4004EB44018F4A02EBC10163
:109EE00021F8150006E004EB44018B4A02EBC101A6
:109EF00021F8156085480068401C84490860854841
:109F0000005D401C834908550122294620460AF07D
:109F100057FB0CE0002004EB44017F4A02EBC10137
:109F200021F815000022294620460AF049FB681C4A
:109F3000C5B20C2DAFDB601CC4B2102CA6DB73487D
:109F40000068002895D07748007800280DD1764821
:109F500000780028FAD17348007840F01000714969
:109F600008704FF6097071490860CDE0FFE70024E2
:109F7000C1E000206749085504EB440000EBC40031
:109F80006B4901EB800090F92800642876DA04EB35
:109F9000440000EBC40001EB800090F92900642824
:109FA0007FDA00257AE004EB44005B4901EBC00056
:109FB00030F81500012862DB04EB440000EBC4001C
:109FC0005B4901EB800030F815105A48408A0A308E
:109FD000814254DD4D480068401C4C49086004EB48
:109FE00044004D4901EBC00030F81500B0F5004FBA
:109FF00019DA4848005D401C4649085501222946A7
:10A0000020460AF0DDFA04EB4400434901EBC000AE
:10A0100030F81500401E04EB44013F4A02EBC10139
:10A0200021F8150038E00022294620460AF0C8FA37
:10A0300004EB440000EBC4003D4901EB800090F9C3
:10A040002800502828DA04EB440000EBC40001EBA0
:10A05000800090F9290050281EDA04EB44002E49B4
:10A0600001EBC00030F81500C0F30E0004EB440112
:10A07000294A02EBC10121F815000DE011E0002290
:10A08000294620460AF09CFA002004EB4401224AAB
:10A0900002EBC10121F81500681CC5B20C2D82DB52
:10A0A00027E0002523E004EB44001B4901EBC0003E
:10A0B00030F81500002813DD04EB440001EBC0006C
:10A0C00030F8150040F4004004EB4401124A02EB62
:10A0D000C10121F815000D480068401C0B490860BB
:10A0E0000022294620460AF06BFA681CC5B20C2DE6
:10A0F000D9DB601CC4B2102CFFF63BAF03480068EC
:10A1000010B900200C49087070BD00006893FF1F53
:10A11000B0060020D4BEFF1F34BDFF1FB2060020D2
:10A120006C93FF1F00070020FF060020F0060020B0
:10A1300034B7FF1FF0B6FF1FD60600201FB50098EA
:10A1400020F4001000F500100090009820F470201A
:10A1500000F500200090009820F4800000F58000B9
:10A160000090009820F480100090F0480068B0F54E
:10A17000807F72D8ED48006800286ED0EB480068F8
:10A1800012286BD00CDC12282ED2DFE800F02D292B
:10A190002E34393F444A4F555A60686E747B81872C
:10A1A0001B286ED009DCA0F113000828ECD2DFE8F0
:10A1B00000F0878C91969BA1A7AD202874D008DC75
:10A1C0001C2872D01D2871D01E2870D01F280BD1DA
:10A1D000BAE021286CD022286BD0FF28F7D1C8E044
:10A1E0004FF40060D24908609AE14FF40060D04912
:10A1F000091D086094E14FF48060CD4908608FE14B
:10A200004FF48060CA49091D086089E14FF480500D
:10A21000C749086084E14FF48050C549091D0860B2
:10A220007EE14FF48040C249086079E14FF48040FC
:10A23000BF49091D086073E14FF40050BC49086034
:10A240006EE14FF40050BA49091D086068E14FF40F
:10A250008050B7498031086062E162E12AE04FF442
:10A260008050B349843108605AE14FF48070B0499E
:10A270008031086054E14FF48070AD49843108604A
:10A280004EE149E04FF40040A9498439486447E170
:10A290004FF40040A6498439886441E14FF480605E
:10A2A000A349843948643BE153E03BE040E045E0AA
:10A2B00054E058E04FF480609D49843988642FE170
:10A2C00040209B49403108602AE1402098494431B0
:10A2D000086025E1802096494031086020E1802017
:10A2E0009349443108601BE14FF4003090494031FC
:10A2F000086015E14FF400308D49443108600FE1EA
:10A300004FF400708A498031086009E14FF4007011
:10A3100087498431086003E14FF4805084498031DB
:10A320000860FDE04FF48050814984310860F7E017
:10A330004FF400507E4980310860F1E04FF4005046
:10A340007B4984310860EBE0012079498031086065
:10A35000E6E00120764984310860E1E04FF40040F6
:10A3600073490860DCE04FF400407149091D086042
:10A37000D6E07049019861F31C000190FF208DF830
:10A380000800F2218DF8091000218DF80A108DF8CF
:10A390000B1067488438006DC0F3404028B19DF829
:10A3A0000A0040F080018DF80A1061488438006985
:10A3B00041F208010840C00828B19DF80A0040F0A9
:10A3C00040018DF80A105A4884380069C0F38000B3
:10A3D00028B19DF80A0040F020018DF80A10544879
:10A3E0008C300068C0F3803028B19DF80A0040F03E
:10A3F00010018DF80A104E488C300068C0F3C00080
:10A4000028B19DF80A0040F008018DF80A1048486C
:10A410004C300068C0F3C02028B19DF80A0040F01D
:10A4200004018DF80A1042484C300068C0F3003037
:10A4300028B19DF80A0040F002018DF80A103C484E
:10A440004C300068C0F3401028B19DF80A0040F07D
:10A4500001018DF80A1036484C300068C0F34030D6
:10A4600028B19DF80B0040F080018DF80B103048AA
:10A470004C300068C0F3803028B19DF80B0040F0EC
:10A4800040018DF80B102A480C300068C0F3002002
:10A4900028B19DF80B0040F020018DF80B102448E6
:10A4A0000C300068C0F3402028B19DF80B0040F04C
:10A4B00010018DF80B101E484C300068C0F340208E
:10A4C00028B19DF80B0040F008018DF80B101848DA
:10A4D0004C300068C0F3002028B19DF80B0040F01C
:10A4E00004018DF80B1012488C300068C0F3C010C6
:10A4F00028B19DF80B0040F002018DF80B100C48BC
:10A5000084380069C0F3404028B19DF80B0040F04A
:10A5100001018DF80B106946012000F00DF800BF15
:10A5200000BF0020014908601FBD0000F8060020A0
:10A5300084F00F40AAE42E012DE9F04706460F46AD
:10A5400072B626B1012E07D0022E0FD109E0154BAD
:10A5500015492824154D09E0154B16492824164D98
:10A5600004E0164B16492824164D00BF00BF0868AA
:10A57000421CA24200DB0022186890420ED00A6002
:10A5800005EB0210D7E900C8D7E9029AC0E900C874
:10A59000C0E9029A62B60020BDE8F08762B64FF0CB
:10A5A000FF30F9E7BC020020C0020020E8090020CB
:10A5B000C4020020C8020020680C0020CC02002049
:10A5C000D0020020E80E002030B5634CE46A634DF1
:10A5D0002D686C43624D2D68ED8894FBF5F464257D
:10A5E00094FBF5F45C4DAD8A2C44A0B25D4C24681C
:10A5F000E48804EB84044FF6FF7505EA4401594CE6
:10A600002468E488574D2D682D892C4404EB84047C
:10A610004FF6FF7505EA4402534CA47B052C12D279
:10A62000DFE804F0031236969700904203DD04241D
:10A630004D4DAC7307E0884205DD4C4C24684A4D13
:10A64000AC600124AC7385E0904201DC884203DAFF
:10A650000424454DAC731AE0434CA468434D2D6867
:10A660002C1BB4F57A7F12D302243F4DAC733D4CC2
:10A670002468248904EB840400EB4404AC81364C48
:10A68000E46B2C600224AC73384C2468AC6061E04D
:10A69000344C2468248904EB840402EB4404A3B200
:10A6A000884251DD98424FDA2F4CA489844246DC1F
:10A6B0002D4CA4682D4D2D682C1B142C47D3264CF3
:10A6C000E46B294D6C602C4664682D68AC4232D92D
:10A6D000254C6468244D2D68641B42F210756C4350
:10A6E000204D2D686D89B4FBF5F41B4DAD6BB4FBAB
:10A6F000F5F4A41C1C4DEC732C46E47B642C01DDAA
:10A70000642401E0184CE47B134D85F84340032496
:10A71000154DAC73164C2478CCB9164C2478B4B9CA
:10A72000134C247844F01004114D2C704FF60A7429
:10A73000114D2C600BE004240B4DAC7307E00B4C67
:10A740002468094DAC6002E00424074DAC7301E0BD
:10A7500000E000BF00BF30BDF0B6FF1F00060020C4
:10A76000080700202407002004BDFF1F1806002052
:10A7700000070020FF060020F00600202DE9F04130
:10A7800004462068C0F3405000287DD0F54800689A
:10A79000B0F84C00012804D12068C0F38050002894
:10A7A00073D0606820F06040EF490844C0B3EF49BF
:10A7B000084420B3EE49084480B111280DD1ED487A
:10A7C000007850B9EC48A1680160E1684160E9484F
:10A7D000006840F05500E74908606DE1E5480088F1
:10A7E00000F47F4050B9E448A1680160E16841602D
:10A7F000E048006840F4AA40DE4908605CE1DD48BA
:10A80000006800F47F0050B9DA48006840F4AA00FC
:10A81000D8490860D948A1680160E16841604BE10E
:10A82000FFE7207A012804D002280FD010280CD18D
:10A83000CFE0607A882808D1A07A552805D1042174
:10A84000E06800F039FECE49086033E1A17A607A11
:10A8500001EB00266FF47F403044092822D2DFE864
:10A8600000F005224C65727B889BA800217BE07A72
:10A8700001EB0025642D15D8C24981F84350C24828
:10A88000007878B9C14801E017E14FE3007848B992
:10A89000BD48007840F01000BB4908704FF60670C4
:10A8A000BB49086093E0217BE07A01EB0025B5F518
:10A8B0007A7F21D8B348406B68434FF47A71B0FB7C
:10A8C000F1F0B04908630846806B68434FF47A7131
:10A8D000B0FBF1F0AB49C863AB48007860B9AB4856
:10A8E000007848B9A848007840F01000A6490870E0
:10A8F0004FF60570A649086069E0A3480078A0B942
:10A900000020A4490880A44908809F48007860B9C5
:10A910009E48007848B99C48007840F010009A4959
:10A9200008704FF607709A49086050E09648007822
:10A9300040B99648007828B99348007840F008005C
:10A940009149087043E09048007820B9002093496D
:10A950000880934908803AE08B48007840B98B48DA
:10A96000007828B98848007840F08000864908704F
:10A970002DE08C48008810280DD08A4800881828BF
:10A9800009D088480088152805D08748006840F01D
:10A990000040854908601AE0844800784B2807D1B8
:10A9A000E17A207B0844C6B216B9E07A7E49086095
:10A9B0000DE07E4800784B2808D155207C4908706E
:10A9C000E07A7C490870207B7B49087000BF00BF9B
:10A9D00070E0A17A607A01EB0026A6F57F4010387E
:10A9E00030B101281ED0022832D0032860D149E0BE
:10A9F000217BE07A01EB0020704908606248007812
:10AA000078B90846006860B16048007848B9624883
:10AA100000886B4908605C48007840F004005A499F
:10AA2000087045E0217BE07A01EB00206349086073
:10AA30005548007858B90846006840B15348007836
:10AA400028B95148007840F004004F4908702FE0C1
:10AA5000217BE07A01EB0020584908604A480078E1
:10AA600078B90846006860B14848007848B94C4851
:10AA70000088544908604448007840F0400042494A
:10AA8000087015E0217BE07A01EB00204B4908605B
:10AA90003D48007858B90846006840B13B48007806
:10AAA00028B93948007840F040003749087000BFA5
:10AAB00000BF00BF00BF00BF38E26068C0F38A403B
:10AAC00010284AD01A2849D01B2848D0502847D1EE
:10AAD0003D480068052844D92248006800890028BC
:10AAE0003FD0A07BB8B30A2876D0152802D01F2803
:10AAF00073D100BFE07B00F0800050B1E07B00F03C
:10AB0000030048B33148C08840F001002F49C88095
:10AB10007DE0607A217A00EB0126C6F30E05B6F5DA
:10AB2000004F0ED941F27070854205D205EB8500C9
:10AB300040002749086055E04EF66020244908602F
:10AB400050E041F27070854248D205EB850040002C
:10AB50002049086046E085E059E09AE02DE1AFE148
:10AB6000E3E195E0080700201069D1FEF096A6E128
:10AB7000140088FF280600202C060020D80600209C
:10AB80009C060020F0B6FF1F00070020FF060020F3
:10AB9000F0060020B6060020B8060020EC060020D3
:10ABA000EE060020AC060020F8060020BC060020BF
:10ABB000010700200207002003070020E80600200C
:10ABC000E4060020F4060020E805002098B3FF1FEB
:10ABD000F0050020F40500201AE058E04EF6602051
:10ABE000D3490860D3480068D1490968884207D929
:10ABF000CF4800680A21B0FBF1F0CF49086006E0B9
:10AC0000CC4800680A21B0FBF1F0CB4908603EE077
:10AC1000A07A00F0800030B1C848C08840F0010040
:10AC2000C649C8801DE0607A217A00EB0120C24944
:10AC300008600846006841F27071884206D34EF6FB
:10AC40006020BC490860BA4908600AE0BA48006858
:10AC500000EB80004000B749086008460068B4492E
:10AC6000086014E0A07A00F0800030B1B348C088DA
:10AC700040F00100B149C88008E0607A217A00EB19
:10AC8000012000EB80004000AB49086000BF00BF1E
:10AC90004BE1207A000201B2607A0844A8490968B1
:10ACA000B1F92C104843642190FBF1F7207B00F0B0
:10ACB000800000B1BF00E17AA07A01EB0028A14832
:10ACC00000684044A0490968401A9E490860086825
:10ACD000C11700EB5171C9109B4A11601046006802
:10ACE0009A490860607B00EB8000C00098490860CA
:10ACF000A07B00EB8000C000964908609648006881
:10AD0000384496490968401A934908600868C11791
:10AD100000EB5171C910914A1160104600689049CA
:10AD20000860864800688F490968884217D28348BE
:10AD300000688C490968081A8049098988420BD340
:10AD40007E4840894FF6E851884208DA7B484089BE
:10AD5000401C7A49488102E00020784948818148B6
:10AD6000006876490860207B00F00300012804D1C8
:10AD70000846C08840F00200C880E07B7A49097824
:10AD8000884209D179480078F0280BDC77480078B0
:10AD9000401C7649087005E0E07B7349087000208C
:10ADA0007249087071480078642805DB6348C088E0
:10ADB00040F004006149C880B7E0207A0104607A5D
:10ADC00001EB0021A07A08446949401A5C490968EE
:10ADD000B1F92C104843642190FBF1F7217BE07A14
:10ADE00001EB002857480068404457490968401A59
:10ADF000544908600868C11700EB5171C910524AE4
:10AE00001160104600685149086053480068384492
:10AE100052490968401A504908600868C11700EB98
:10AE20005171C9104D4A1160104600684C490860C4
:10AE3000424800684B490968884213D23F4800687D
:10AE400048490968081A3D49098988420AD33B489C
:10AE500040894FF6E851884204DA38484089401C5E
:10AE6000364948813F48006834490860607B00F0FB
:10AE70000300012804D10846C08840F00200C880C1
:10AE8000E07B3949097888420CD1E07B364908706B
:10AE900036480078F02808DC34480078401C3349F4
:10AEA000087002E0E07B3049087030480078642880
:10AEB00005DB2248C08840F004002049C88034E007
:10AEC000617B207B00F00F0001EB002000EB800095
:10AED00040001F490860A07B0101E07B01EB2010CE
:10AEE00000EB800040001B490860207A0101607A75
:10AEF00001EB201000EB800040001E490860A17AA1
:10AF0000607A00F00F0001EB002000EB80004000B1
:10AF100019490860E07A0101207B01EB201000EB69
:10AF2000800040001549086000BF00BFBDE8F08107
:10AF3000F4050020F0050020F805002098B3FF1F5D
:10AF4000080700207493FF1F040600200806002055
:10AF500010060020140600207C93FF1FFC05002033
:10AF600000060020180600209493FF1F9593FF1FF2
:10AF7000E09304001C060020200600202406002088
:10AF80000168C1F3405100296FD098490968B1F8B0
:10AF90004C10012904D10168C1F38051002979D0F6
:10AFA000416821F06041924BCA1A994273D016DC75
:10AFB000904BA1EB030299426ED008DC8E4A1144FB
:10AFC00000296AD08D4A114400294DD1A9E08C494D
:10AFD0001144002962D0B1F5C02FF6D1F3E0B2F5EB
:10AFE000F01F43D006DCB2F5202F74D0B2F5A81FB5
:10AFF000EBD1ECE08349114421B1834A114400298B
:10B00000E3D1EBE081490968814A5160017B01F09D
:10B010000F0109B1012200E000227D49C96862F3F5
:10B0200082017B4AD160017BD26861F38612784944
:10B03000CA60017B4A087649C96862F3C301744A51
:10B04000D160017B8A087249C96862F30411704AB1
:10B05000D160017BCA086E49C96862F3C7116C4AA6
:10B06000D16055216B4A1170BCE0BCE0AA21694A4D
:10B0700011700B21684A11706849097841F001018B
:10B08000664A117066490978012902D10021644A93
:10B090001170A7E0A9E01FE050E069E0017A614A81
:10B0A00011705E49097841F002015C4A11705A49F9
:10B0B00009780B290BD1017B0A06C17A02EB014208
:10B0C000817A02EB0122417A1144574A1160AA2188
:10B0D000504A117086E052E0027B417B02EB012175
:10B0E000A1F57A6101EB81014900504A1160827A31
:10B0F000C17A02EB01214E4A1180027A417A02EBB9
:10B1000001214C4A1180AA21424A11704A4909681A
:10B11000464A1268914203DA44490968464A116076
:10B1200060E0AA213B4A1170017A444A11703B4900
:10B13000097841F00401394A117053E0AA21354AD7
:10B14000117001213E4A1170417AC1F381013D4ADB
:10B150001170C17A01F00F0119B9017A01F03001C3
:10B1600029B13949097841F02001374A117039E095
:10B17000AA21284A11700121344A117032E0AA2113
:10B18000244A11700121324A11706421314A117030
:10B190000121314A1170827AC17A02EB0121A1F5B5
:10B1A0007A612E4A1160027A417A02EB01212C4A1F
:10B1B0001180194909780B2904D1817A01F0030122
:10B1C000284A11700EE0AA21124A11700AE0AA2141
:10B1D000104A11700121244A117003E00121234A11
:10B1E000117000BF01E000BF00BF704708070020DA
:10B1F00056F4081856F41A10AA0BE0F7000015F8D8
:10B20000000019F871A309FF8F5C12FC18060020DA
:10B210008CBBFF1FBA060020C9060020D106002003
:10B22000BB060020BE0600206C0600207006002031
:10B23000620600206006002074060020BF06002081
:10B24000C0060020CD060020C6060020C106002052
:10B25000C7060020C8060020CC0600207806002083
:10B2600064060020CA060020CB060020C30600208A
:10B270000168C1F34051002940D022490968B1F862
:10B280004C10012903D10168C1F38051A9B3416871
:10B2900021F060411C4A114441B31C4A114421BBB6
:10B2A000017A012902D002291BD113E0184949680B
:10B2B00021F080018031164A516012490968C98D18
:10B2C000144A126851436422B1FBF2F189B2124A66
:10B2D000116006E00E49496821F080010C4A516076
:10B2E00000BF00BF417B0D4A117006E0027A417A2F
:10B2F00002EB01210A4A116000BF01E000BF00BF5C
:10B3000070470000080700205959F6F3D7B2D8FF5C
:10B31000F0B6FF1F0406002090060020BD060020A6
:10B320000C0600201FB50024BEE0C4EBC400604939
:10B3300051F82000002879D0C4EBC40051F8200057
:10B340005C49884272D8C4EBC400594901EB8000C3
:10B35000406802280BD3C4EBC40001EB80004068B6
:10B36000801EC4EBC401524A02EB81014860C4EB69
:10B37000C4004F4901EB80004068022856D2C4EB5C
:10B38000C40051F82000C4EBC401494A02EB81011A
:10B390004860C4EBC400114601EB8000006900283E
:10B3A00044D072B6C4EBC400414901EB8000407B3D
:10B3B000552806D1C4EBC4013D4A02EB81000DF0D3
:10B3C00057FA62B6C4EBC400394901EB800000694A
:10B3D00000280BDDC4EBC40001EB80000069401EB7
:10B3E000C4EBC401324A02EB81010861C4EBC40022
:10B3F0002F4901EB8000817B009861F3555000904C
:10B4000072B60098C0F3405088B1C4EBC40028491C
:10B4100001EB80008168019861F31C0001900098A5
:10B4200020F4800000F5800000900AE03BE0C4EBCF
:10B43000C4001F4901EB80000189019861F39C4021
:10B440000190009820F480100090C4EBC4001849CB
:10B4500001EB8000017B009861F313400090C4EB86
:10B46000C400134901EB8001D1E90501CDE90201D6
:10B4700062B6C4EBC4010E4A02EB8101C87B694687
:10B48000FFF75AF872B6C4EBC400094901EB80001B
:10B49000407BAA2806D1C4EBC401054A02EB810017
:10B4A0000DF0E6F962B6641C152CFFF43EAF1FBD2B
:10B4B0009C0300200051250210B50246012920D02E
:10B4C000022918D003290DD004291CD1130602F437
:10B4D0007F4403EB042302F47F0403EB142303EB08
:10B4E000126012E0D3B2C2F3072404EB8333C2F339
:10B4F0000744181909E0D3B2C2F3072404EB032070
:10B5000003E0104601E0002000BF00BF10BD0000B6
:10B51000354A1178354A1268354B1B68D01A324AC1
:10B520001278082A56D2DFE802F00455172C555538
:10B53000364B304A9289C2F30122012A02D0022AF4
:10B5400008D103E00222284B1A7003E00622264BA2
:10B550001A7000BF00BF3DE0274A1268D28A0A2352
:10B5600092FBF3F2824202D803221F4B1A70214A47
:10B570009289C2F30122022A02D106221A4B1A70C2
:10B5800028E01C4A9289C2F30122022A02D1062233
:10B59000154B1A701EE0184A1268128B0A2392FB90
:10B5A000F3F2824202D807220F4B1A70114A928995
:10B5B000C2F30122012A02D102220B4B1A7009E0C8
:10B5C0000C4A9289C2F30122012A02D10222064BBF
:10B5D0001A7000BF00BF044A1278914203D0034A98
:10B5E0001268034B1A607047FD0600201806002001
:10B5F000100300208CBBFF1F0C07002070B5024613
:10B600001B490023002015E00C7804F03F040425BA
:10B6100005EBC205AC420BD18C8800EB400505EB75
:10B62000C005144E06EB8505ED8CAC4200D15B1CC9
:10B630000831401C1028E7D30F4C2468C4F305449C
:10B640009C420ED10C4C2468C4F30544012C08DB49
:10B65000094C246824F0004404F10044064D2C6099
:10B6600005E0054C246824F00044034D2C6070BDB7
:10B6700070B6FF1F34B7FF1FF0B6FF1F30B501468D
:10B6800000222C4800232DE0C9B90478457804EB4A
:10B69000052449F25555AC4222D18478C57804EB93
:10B6A000052449F25555AC421AD10479457904EB89
:10B6B000052449F25555AC4212D1521C10E00478D1
:10B6C000457804EB052449F25555AC4208D18478FD
:10B6D000C57804EB052449F25555AC4200D1521C03
:10B6E00008305B1C102BCFD3134C2468C4F30544E3
:10B6F000944218D1104C2468C4F30544012C12DB89
:10B7000041B90D4C246824F4400404F580040A4D2A
:10B710002C600EE0084C246824F4400404F5000476
:10B72000054D2C6005E0044C246824F44004024DCF
:10B730002C6030BD70B6FF1FF0B6FF1F30B5314B27
:10B740001B6823F47C1303F580132E4C23602E48D2
:10B750000022002137E00378FF2B23D14378FF2B11
:10B7600020D18378FF2B1DD1C378FF2B1AD1037909
:10B77000FF2B17D14379FF2B14D1224B1B681B0CD5
:10B780005B1E204C246863F315441E4B1C60002391
:10B7900001EB410404EBC1041C4D05EB840484F867
:10B7A0002B300EE0012301EB410404EBC104174DE3
:10B7B00005EB840484F82B30437903F0020303B9CA
:10B7C000521C0830491C1029C5D30E4B1B68C3F30B
:10B7D000054393420ED10B4B1B68C3F30543012B6A
:10B7E00008DB084B1B6823F0807303F18073054C62
:10B7F000236005E0034B1B6823F08073014C23603A
:10B8000030BD0000F0B6FF1F70B6FF1F34B7FF1F3A
:10B8100030B501460022264800231DE099B904787E
:10B82000552C17D14478952C14D18478552C11D1EE
:10B83000C478952C0ED10479552C0BD14479952CD4
:10B8400008D1521C06E00478552C03D14478952C7D
:10B8500000D1521C08305B1C102BDFD3154C246820
:10B86000C4F3054494421CD1124C2468C4F305442B
:10B87000012C16DB11B1012912D108E00D4C24680E
:10B8800024F0C05404F100640A4D2C6008E0094C17
:10B89000246824F0C05404F18054064D2C6000BF8D
:10B8A00005E0044C246824F0C054024D2C6030BDE7
:10B8B00070B6FF1FF0B6FF1F30B5014600232D48BC
:10B8C000002214E00478552C0FD14478952C0CD12B
:10B8D0008478552C09D1C478952C06D10479552C3F
:10B8E00003D14479952C00D15B1C0830521C102ADE
:10B8F000E8D3214C2468C4F305449C4232D11E4C49
:10B900002468C4F30544012C2CDB31B101290DD08E
:10B91000022914D0032924D11AE0174C246824F0FA
:10B92000C06404F10074144D2C601AE0124C2468B9
:10B9300024F0C06404F100740F4D2C6011E00E4C33
:10B94000246824F0C06404F100740B4D2C6008E0FE
:10B95000094C246824F0C06404F18064064D2C6016
:10B9600000BF05E0044C246824F0C064024D2C6044
:10B9700030BD000070B6FF1FF0B6FF1F024622B1B7
:10B98000012A04D0022A06D103E0074903E007494F
:10B9900001E0074900BF00BF00E0486F0B6F03F0F4
:10B9A0000203002BF9D0704700C0024000D00240D3
:10B9B00000E002402DE9F04F80464FF00109FA4DBA
:10B9C0000024FBE104EB440000EBC400F74901EB69
:10B9D000800090F82B0000287DD00621284605F035
:10B9E0001BF98246E888504576D1B8F1000F09D09E
:10B9F000B8F1010F7BD0B8F1020F6FD0B8F1030F8F
:10BA00006DD155E12878697800EB012704EB4400FB
:10BA1000E74931F830003E1A41F28830864202DAB6
:10BA20004042864212DC04EB440000EBC400DF49D4
:10BA300001EB8000808C20F00100401C04EB4401ED
:10BA400001EBC401D94A02EB81018884A878E97826
:10BA500000EB012704EB4400D54901EBC00040880E
:10BA60003E1A41F28830864202DA4042864212DCB7
:10BA700004EB440000EBC400CC4901EB8000808C57
:10BA800020F00200801C04EB440101EBC401C74A12
:10BA900002EB810188842879697900EB012704EBA6
:10BAA0004400C34901EBC00080883E1A41F288304F
:10BAB000864202DA4042864218DC04EB440000EB86
:10BAC000C400BA4901EB8000808C20F00400001D06
:10BAD00004EB440104E06FE15EE108E077E05AE145
:10BAE00001EBC401B14A02EB8101888453E128785B
:10BAF000697800EB012704EB4400AD4901EBC0007D
:10BB0000C0883E1A41F28830864202DA40428642BC
:10BB100012DC04EB440000EBC400A44901EB8000FC
:10BB2000808C20F00800083004EB440101EBC401D4
:10BB30009E4A02EB81018884A878E97800EB01270E
:10BB400004EB44009A4901EBC00000893E1A41F21F
:10BB50008830864202DA4042864212DC04EB44001E
:10BB600000EBC400914901EB8000808C20F01000B4
:10BB7000103004EB440101EBC4018C4A02EB81015B
:10BB800088842879697900EB012704EB440088490F
:10BB900001EBC00040893E1A41F28830864202DA49
:10BBA0004042864212DC04EB440000EBC4007F49B3
:10BBB00001EB8000808C20F02000203004EB440159
:10BBC00001EBC401794A02EB81018884E3E0287823
:10BBD000697800EB012704EB4400754901EBC000D4
:10BBE00080893E1A41F28830864202DA404286421B
:10BBF00012DC04EB440000EBC4006C4901EB800054
:10BC0000808C20F04000403004EB440101EBC40183
:10BC1000664A02EB81018884A878E97800EB012765
:10BC200004EB4400624901EBC000C0893E1A41F2B6
:10BC30008830864202DA4042864212DC04EB44003D
:10BC400000EBC400594901EB8000808C20F080009B
:10BC5000803004EB440101EBC401544A02EB810142
:10BC600088842879697900EB012704EB4400504966
:10BC700001EBC000008A3E1A41F28830864202DAA7
:10BC80004042864213DC04EB440000EBC400474909
:10BC900001EB8000808C20F4807000F5807004EB54
:10BCA000440101EBC401414A02EB8101888472E046
:10BCB0002878697800EB012704EB44003C4901EB4C
:10BCC000C000408A3E1A41F28830864202DA404281
:10BCD000864213DC04EB440000EBC400334901EB63
:10BCE0008000808C20F4007000F5007004EB4401AB
:10BCF00001EBC4012D4A02EB81018884A878E97820
:10BD000000EB012704EB4400294901EBC000808AC5
:10BD10003E1A41F28830864202DA4042864213DC03
:10BD200004EB440000EBC400204901EB8000808C50
:10BD300020F4806000F5806004EB440101EBC40155
:10BD40001A4A02EB810188842879697900EB01277E
:10BD500004EB4400164901EBC000C08A3E1A41F2D0
:10BD60008830864202DA4042864213DC04EB44000B
:10BD700000EBC4000D4901EB8000808C20F40060D2
:10BD800000F5006004EB440101EBC401074A02EB3B
:10BD90008101888400BF0FE00648806A401C054985
:10BDA00088624FF000090CE070B6FF1F34B7FF1F28
:10BDB000F4B9FF1FF0B6FF1F0835641C102CFFF408
:10BDC00001AE00BFB8F1030F7DD1B9F1000F7AD0F9
:10BDD00000206A4908804FF0010B6949087000246F
:10BDE000B4E004EB440000EBC400664901EB8000C2
:10BDF00090F8240000F0010004EB440101EBC401C1
:10BE0000604A02EB810191F82410C1F3400108441B
:10BE100004EB440101EBC40102EB810191F8241011
:10BE2000C1F38001084404EB440101EBC40102EBBF
:10BE3000810191F82410C1F3C001084404EB4401CE
:10BE400001EBC40102EB810191F82410C1F3001150
:10BE5000084404EB440101EBC40102EB810191F8B9
:10BE60002410C1F34011084404EB440101EBC40168
:10BE700002EB810191F82410C1F38011084404EB16
:10BE8000440101EBC40102EB810191F82410C1F3DC
:10BE9000C011084404EB440101EBC40102EB810131
:10BEA000898CC1F30021084404EB440101EBC40177
:10BEB00002EB8101898CC1F34021084404EB440169
:10BEC00001EBC40100E045E002EB8101898CC1F384
:10BED0008021084404EB440101EBC40102EB810121
:10BEE000898CC1F3C021084404EB440101EBC40177
:10BEF00002EB8101898C60F30F3104EB440000EB0D
:10BF0000C40002EB8000818404EB440000EBC40019
:10BF1000114601EB8000808C000B20B1174800888F
:10BF200058441649088004EB440000EBC40015494E
:10BF300001EB8000808C1249097801EB1030104928
:10BF400008704FF6FF7000EA4B0B641C102CFFF4D6
:10BF500048AF10E0B9F1000F0DD1002409E0002036
:10BF600004EB440101EBC401064A02EB8101888421
:10BF7000641C102CF3D34846BDE8F08FAE060020B9
:10BF8000D406002034B7FF1F00204E49C8738873C1
:10BF900048730873C87288724872B620C873B72095
:10BFA0008873B82048738E2008738F20C872902041
:10BFB000887291204872842043490860CF21434809
:10BFC0000170CE21401E0170CD21401E0170CC2198
:10BFD000401E0170CB21401E0170CA21401E01701D
:10BFE000C921401E017020213948A0F8FE11A0F897
:10BFF000F6113849C0F8E8113749C0F8E0110421BA
:10C00000A0F8E41140F20221A0F8E6116FF00F0150
:10C01000C0F8EC113149C0F8F0110421A0F8F41176
:10C020002F49C0F8F8110021A0F8FC112021A0F838
:10C03000DE11A0F8D6112749C0F8C8112949C0F867
:10C04000C0110421A0F8C41140F20221A0F8C611C9
:10C050006FF00F01C0F8CC112349C0F8D0110421B2
:10C06000A0F8D4111E49C0F8D8110021A0F8DC11A5
:10C070002021A0F8BE11A0F8B6111649C0F8A811E9
:10C080001A49C0F8A0110421A0F8A41140F202211D
:10C09000A0F8A6116FF00F01C0F8AC111449C0F858
:10C0A000B0110421A0F8B4110D49C0F8B811002155
:10C0B000A0F8BC110F200449C8760E20C8760D20C8
:10C0C000C876704700100240008000400F81004099
:10C0D0000090004010C0FFBF804002406811002067
:10C0E00000FEFFFF805002406813002080B0024035
:10C0F0006815002010B586B0019820F4001000F5F6
:10C1000000100190019820F4702000F500200190AB
:10C11000019820F4800000F580000190019820F43F
:10C1200080100190F748007830287DD00BDC0A2879
:10C1300032D003DCA0B108281FD11FE010283CD06A
:10C140002028F9D199E070286FD004DC40286DD008
:10C150006028F1D1F4E1802869D09028ECD1DEE2AA
:10C160000620E949087048708870C87001220846A6
:10C1700000F02CFB0820E349087007E30520E249A2
:10C18000087048708870C8700222084600F01EFBD4
:10C190000A20DC490870F9E2DB48C07800F023008F
:10C1A000022803D11020D749087005E00020D549A6
:10C1B00008700120D5490870E8E2D54800780028C9
:10C1C0005AD0D348007800F00100A8B1D1480078D7
:10C1D00000F00F00CF490978C1F303110844CD499D
:10C1E0000988C1F303210844CB4908800020CB49CA
:10C1F00008803020C3490870C9480069C0F3803006
:10C2000020B9C7480069C0F3C020A8B3C04800786F
:10C2100000F0040028B10020C04908802020B9495E
:10C220000870BB48007803E0D5E0C0E1BAE00FE257
:10C2300000F0080010B16020B2490870B4480078DE
:10C2400000F0100028B1B748006810B17020AD4967
:10C250000870AF48007800F0400028B10020AF49D6
:10C2600008808020A7490870A948007800F0800065
:10C2700010B19020A349087088E2A84800880028DF
:10C2800057D0A949029861F31C000290A348008886
:10C29000102101EB2020C0B28DF80C009F480178DE
:10C2A0008DF80D109848C1798DF80E1081798DF8B0
:10C2B0000F1041798DF8101001798DF81110C17AA5
:10C2C0008DF81210817A8DF8131001A90120FEF764
:10C2D00033F9924800889549096888420CD29448FD
:10C2E000006894490988884206D020208DF80C0007
:10C2F00000218DF80D1005E02F208DF80C00FF2196
:10C300008DF80D108048417A8DF80E10017A8DF865
:10C310000F10C17B8DF81010817B8DF81110417BBF
:10C320008DF81210017B8DF8131001A90120FEF782
:10C3300003F97A4800887D49096888422BD27C48F5
:10C3400000687C490988884225D07948006828B16E
:10C3500077480068401E7649086003E040F2FF70AD
:10C36000734908607248006800010590032066491F
:10C3700008700598000C48700598000A88700598A8
:10C38000C8701022084600F021FA64480088401C5A
:10C390006249088005E010205A49087000205C4975
:10C3A0000870F3E1062058498870C87001220846D9
:10C3B00000F00CFA5948008857490988884206DB82
:10C3C00010205049087000205149087002E03020C8
:10C3D0004C490870DAE158480088000105900220B5
:10C3E000494908700598000C48700598000A887043
:10C3F0000598C870002461E046480088C0F3032017
:10C4000046490988884213DD042000EB04103E49A8
:10C4100001444248008800EB40023E48001D00EB0A
:10C42000820002680A6042684A608068886017E09B
:10C43000042000EB04103449014436480088C0F35E
:10C440000320364A1288101A00EB400231484C3063
:10C4500000EB820002680A6042684A608068886077
:10C460002E480088401C2D49088033480088401C15
:10C470003149088008460088B0F5006F01DB0020D4
:10C4800008802D4800882B49098888420BD12A480A
:10C490000088401C2749088008460088B0F5006FD6
:10C4A00001DB00200880641C23490888C11700EBC9
:10C4B00011710911A0EB011101B905E017480088BD
:10C4C00015490988884297DB00BF042000EB04125D
:10C4D0000D49084600F07AF9104800880E4909888D
:10C4E00088420BDB134800881349098800EB0140A0
:10C4F0000590042205A911480DF07CFD402001495A
:10C50000087043E140030020E4BEFF1FFF06002047
:10C51000000700204CBCFF1F420300204403002002
:10C5200000F00F40F0060020AAE42E01E8060020EB
:10C53000E4060020B6060020B8060020E001001442
:10C54000102094490870002093490870934902987C
:10C5500061F31C000290FF208DF80C00F0218DF893
:10C560000D108F4800888F490988884206DB8C4867
:10C5700000888C490988401A059002E040F2FF705B
:10C5800005900598010A8DF80E100598C1B28DF836
:10C590000F1000218DF810108DF811108DF8121069
:10C5A0008DF8131001A90120FDF7C6FFEEE07E48CB
:10C5B00000884FF4004101EBC000059002207B4948
:10C5C00008700598000C48700598000A8870059856
:10C5D000C87077480078087175480088000A48716B
:10C5E000084674490968C0F80610407A6F49887295
:10C5F0000846407AC8720C22084600F0E7F86A48FC
:10C600000088401C6849088008460088B0F5805FB3
:10C6100001DB002008806448008867490988884257
:10C620000BD161480088401C634908800846008897
:10C63000B0F5805F01DB0020088000205F490880A2
:10C640005F4908805A4908604020524908709DE0BF
:10C650005A48008838B35149029861F31C0002908F
:10C6600056480088302101EB2020C0B28DF80C0024
:10C67000524801788DF80D104C4841798DF80E1014
:10C6800001798DF80F10417A8DF81010017A8DF82C
:10C690001110C1798DF8121081798DF8131001A94C
:10C6A0000120FDF749FF454800884649096888424E
:10C6B0002ED24548006840490988884228D042481F
:10C6C000006828B140480068401E3F49086003E008
:10C6D00040F6FF703C4908603B4800684FF4004159
:10C6E00001EBC00005900320304908700598000C4C
:10C6F00048700598000A88700598C8700C22084692
:10C7000000F064F82D480088401C2C49088005E0A2
:10C7100010202049087000201F49087036E01020C2
:10C720001C49087000201C4908701C49029861F3DC
:10C730001C000290FF208DF80C00F1218DF80D10E7
:10C74000194800881C490988884206DB1648008879
:10C7500019490988401A059002E040F6FF700590DB
:10C760000598010A8DF80E100598C1B28DF80F10CA
:10C7700000218DF810108DF811108DF812108DF821
:10C78000131001A90120FDF7D7FE00BF00BF06B0BE
:10C7900010BD00004003002000070020AAE42E0185
:10C7A000B8060020B6060020EE060020E4BEFF1FFB
:10C7B000F006002098060020EC060020440300202C
:10C7C00042030020E8060020F406002070B503466E
:10C7D000002A69DDD61702EB9676B610A2EB860624
:10C7E00036B11446D61702EB9676B610701C04E0EC
:10C7F0001446D61702EB9676B010C0F30E062B4CFB
:10C80000A4F85E61C0F30E06A4F856610426C4F8CD
:10C810004861274EC4F840610026A4F8446140F204
:10C820000226A4F846610026C4F84C61C4F85011F1
:10C830000426A4F85461840066421C4CC4F8586174
:10C840000826A4F85C61C0F30E06A4F83E61C0F3AC
:10C850000E06A4F836610426C4F82861C4F8203115
:10C86000A4F8246140F20226A4F8266184006642FE
:10C870000E4CC4F82C610E4E103EC4F830610026F8
:10C88000A4F83461C4F838610826A4F83C61012496
:10C89000C4EBC20505F1C254054E743E34660A2449
:10C8A000044EF4760924F47670BD00000090004038
:10C8B00074D002400080004020B1012807D0022837
:10C8C00011D10AE04FF08041084A11600BE04FF0AF
:10C8D0008041064A121D116005E04FF08041034A75
:10C8E0001C32116000BF00BF70470000905006402E
:10C8F0000146074A12780AB9002008E0054AC1F348
:10C90000C623D25CC1F30223DA4002F00100704773
:10C9100080C1FF1F00C1FF1F70B500BF0C488669B2
:10C9200000F0BCF9054600BF294609481830FCF75D
:10C9300093F8044600BFB442F0D1A54206D200BF2E
:10C9400003481030FCF77FF800BF00BF284670BDD9
:10C9500080C1FF1F2DE9F04104460D4616462046D2
:10C96000FFF7C6FF10B90120BDE8F081FFF7D4FF43
:10C970000746A4B200BFEFF3058010B14FF40020CA
:10C9800000E00020044344F0407033462A46394614
:10C9900000F03EF880464046E6E72DE9F05F0446A9
:10C9A0000F4690469946DDF828A02046FFF7A0FFE5
:10C9B00010B90120BDE8F09FFFF7AEFF8346A4B297
:10C9C00000BFEFF3058010B14FF4002000E000201D
:10C9D000044304F055FA4FF4E02101EA004544EA2B
:10C9E000050141F0807043463A46594600F010F880
:10C9F00006460EB90020DDE745F0010141F0007068
:10CA000053464A46594600F003F806463046D1E7F9
:10CA10002DE9FF4F81B0884691469A464FF0070BAB
:10CA200051E000BF2E48FCF70EF8064606F00F0056
:10CA30002C4901EB001430094FF4700101EA005158
:10CA40000091DDE9001008434FF0805101EAD80160
:10CA500008434FF0005101EA990108434FF080412B
:10CA600001EA5A01084340F04065294604F10C00F0
:10CA7000FBF7FAFF054605F0806010B385F080658E
:10CA800085F0004505F0004728F00040384320605D
:10CA900029F00040384360602AF000403843A0602D
:10CAA000294604F10C00FBF7F0FF48B100BF0C4829
:10CAB000001DFBF7C8FF00BF012005B0BDE8F08FE7
:10CAC00004E0ABF1010BBBF1000FAAD100BF00BF26
:10CAD00003480830FBF7B7FF00BF0020EDE7000078
:10CAE00084C1FF1F00C0FF1FF0B506460C46154667
:10CAF000FF2C01D2FF2D01D30020F0BD0022002326
:10CB00001AE0012098403040A0B1214610E002EB2D
:10CB1000D1000B4F385C01F0070C012707FA0CF726
:10CB2000384302EBD107DFF818C00CF80700491CA6
:10CB3000A942ECD920325B1C042BE2D30120DCE7B4
:10CB400000C1FF1F2DE9F05F824689460020414960
:10CB5000087080214048FCF794F818213F480EF0F7
:10CB600039F980463B48006A3D49884208D008466A
:10CB7000384908620846A0F802800120C8610FE029
:10CB800034484088404506D03248A0F80280012051
:10CB90003049C86104E02F48C069401C2D49C86174
:10CBA0002C48C06901280BD100202A4948704860F0
:10CBB0008860C8604FF480712A48FCF762F80FE083
:10CBC00000270BE0274800EB0715E86800F08060BD
:10CBD00018B1E86820F04060E8607F1C102FF1D3A6
:10CBE0001C48C06901280FD100F064F804461CB14C
:10CBF00000F05AF8064600E000261648466100207C
:10CC000014498861086102E000F054F80446ECB170
:10CC1000FE2200215046FFF767FFEF2211460F204A
:10CC2000FFF762FFFE2211460420FFF75DFFFFF7CA
:10CC300073FE8346074800235946C2690A48FFF736
:10CC4000E7FEB9F1000F01D000F010F82046BDE872
:10CC5000F09F000080C1FF1F00C1FF1F70D60100C0
:10CC60006B27A5E100C0FF1F00FF000310B50948B6
:10CC7000007808B1012010BD012006490870FFF7B7
:10CC80004BFE044600231A4621460348FFF7C0FE28
:10CC90000120F0E780C1FF1F01FF00030148406849
:10CCA00070470000001000E0014800687047000075
:10CCB000A493FF1F0648006840F080700449086094
:10CCC0000448006840F001000249086001207047F4
:10CCD000FCED00E0001000E010B504460022214603
:10CCE0000148FFF737FE10BD01F3010010B50446FF
:10CCF000002221460148FFF72DFE10BD05F302007A
:10CD000010B50446002221464FF47340FFF722FE7F
:10CD100010BD000010B50446002221460148FFF76F
:10CD200019FE10BD03F3020010B50446002221468F
:10CD30000148FFF70FFE10BD0DF5020010B50446C7
:10CD4000002221464FF47140FFF704FE10BD0000A1
:10CD500010B50446002221460148FFF7FBFD10BD37
:10CD600006F1010010B50446002221460148FFF7F4
:10CD7000F1FD10BD13F1010010B50022114602486B
:10CD8000FFF7E8FD10BD000001F1010010B5002221
:10CD900011460248FFF7DEFD10BD000002F102005F
:10CDA00010B5002211460248FFF7D4FD10BD000067
:10CDB00007F1010010B5002211460248FFF7CAFD35
:10CDC00010BD000008F10200F8B504460D461646F5
:10CDD0001F4633462A46214602480097FFF7DDFDED
:10CDE000F8BD000001F0020070B504460D462A4669
:10CDF00021460248FFF7AEFD70BD000004F00200BE
:10CE0000F8B504460D461646002033462A4621460C
:10CE100000900248FFF7C1FDF8BD000005F00200D8
:10CE2000F8B504460D4616461F4633462A462146A7
:10CE300002480097FFF7B1FDF8BD000003F00200C3
:10CE4000F8B504460D461646002033462A462146CC
:10CE500000900248FFF7A1FDF8BD000002F00200BB
:10CE6000F8B504460D461646002033462A462146AC
:10CE700000904FF43C30FFF790FDF8BD70B50446CC
:10CE80000D462A4621460248FFF764FD70BD0000AA
:10CE900003FA020070B504460D462A4621464FF4B7
:10CEA0007A40FFF757FD70BDF8B504460D461646AB
:10CEB0001F4633462A46214602480097FFF76DFD7C
:10CEC000F8BD00000CFA0100F8B504460D46164600
:10CED000002033462A46214600900248FFF75DFDB8
:10CEE000F8BD00000DFA020010B5044600222146EC
:10CEF0000148FFF72FFD10BD0EFA020070B5044681
:10CF00000D462A4621460248FFF724FD70BD000069
:10CF100009FA020070B504460D462A462146024829
:10CF2000FFF718FD70BD00000AFA0200F8B50446CC
:10CF30000D461646002033462A46214600900248F8
:10CF4000FFF72BFDF8BD000001FA010070B50446A3
:10CF50000D462A4621460248FFF7FCFC70BD000042
:10CF60000BFA020070B504460D462A4621460248D7
:10CF7000FFF7F0FC70BD000010FA0200F8B504469F
:10CF80000D4616461F4633462A462146024800975C
:10CF9000FFF703FDF8BD000006FA0100F8B50446EE
:10CFA0000D461646002033462A4621460090024888
:10CFB000FFF7F3FCF8BD000007FA020010B50446C5
:10CFC000002221460148FFF7C5FC10BD08FA020007
:10CFD00070B504460D462A4621460248FFF7BAFCC2
:10CFE00070BD00000FFA020070B504460D462A46D7
:10CFF00021460248FFF7AEFC70BD000006F70100B5
:10D0000070B504460D462A4621460248FFF7A2FCA9
:10D0100070BD000007F7020010B50446002221464B
:10D020000148FFF797FC10BD08F7020070B50446F1
:10D030000D462A4621460248FFF78CFC70BD0000D1
:10D0400009F7020070B504460D462A4621460248FB
:10D05000FFF780FC70BD000003F7020010B5044626
:10D06000002221460148FFF775FC10BD0EF70100B4
:10D0700010B50446002221460148FFF76BFC10BDA5
:10D080000FF7020070B504460D462A4621464FF4BC
:10D090007740FFF75FFC70BD10B5044600222146C3
:10D0A0000148FFF757FC10BD01F7010010B5044619
:10D0B000002221460148FFF74DFC10BD0AF702008F
:10D0C00010B50446002221460148FFF743FC10BD7D
:10D0D0000BF7010070B504460D462A46214602486A
:10D0E000FFF738FC70BD00000CF7020010B50446D5
:10D0F000002221460148FFF72DFC10BD08F8020070
:10D1000070B504460D462A4621460248FFF722FC28
:10D1100070BD000016F2030070B504460D461646B9
:10D120002EB1324621460548FFF714FC05E02A4699
:10D13000214602482938FFF70DFC70BD2CF2020091
:10D1400010B50446002221460148FFF703FC10BD3C
:10D150001CF2020070B504460D462A4621464FF4E3
:10D160007240FFF7F7FB70BD10B500221146024870
:10D17000FFF7F0FB10BD00001AF20100F8B50446FD
:10D180000D4616461F4633462A462146024800975A
:10D19000FFF703FCF8BD000009F4020010B50446D7
:10D1A000002221460148FFF7D5FB10BD08F402001C
:10D1B00010B50446002221460148FFF7CBFB10BD05
:10D1C00015F20200F8B504460D4616460020334617
:10D1D0002A46214600900248FFF7DFFBF8BD000019
:10D1E00001F2010010B50446002221460148FFF774
:10D1F000B1FB10BD18F2030010B504460022214611
:10D200000148FFF7A7FB10BD19F2020070B50446F4
:10D210000D462A4621460248FFF79CFB70BD0000E0
:10D2200017F2030070B504460D462A46214602480F
:10D23000FFF790FB70BD000001F602002DE9F043FE
:10D2400006460B4606F128074FF00A0C97FBFCF741
:10D25000FAB20C2A78DC002A76DBB3F57A7F74DA2E
:10D26000642793FBF7F10C2A71DA93FBF7FC07FBB9
:10D270001C3702EB420C0CEBC20CDFF8D481D8F85F
:10D28000008008EB4C0801F1010C38F81CC002EBDF
:10D29000420808EBC208DFF8B891D9F8009009EB12
:10D2A000480838F81180ACEB080C07FB0CF74FF07E
:10D2B000640C97FBFCF702EB420C0CEBC20CDFF8A2
:10D2C0009081D8F8008008EB4C0C3CF811C007EBBB
:10D2D0000C04642793FBF7FC07FB1C3702F1010CDD
:10D2E0000CEB4C0808EBCC0CDFF86481D8F800801C
:10D2F00008EB4C0801F1010C38F81C8002F1010C1C
:10D300000CEB4C0909EBCC0CDFF84491D9F80090F8
:10D3100009EB4C0C3CF811C0A8EB0C0C07FB0CF70C
:10D320004FF0640C97FBFCFC571C07EB470808EB1D
:10D33000C707DFF81C81D8F8008008EB470737F8EB
:10D3400011700CEB070568E079E04FE0FFE7642718
:10D3500093FBF7FC07FB1C37DFF8F4C0DCF800C0D8
:10D360000CF5847C01F101083CF81880DFF8E0C07E
:10D37000DCF800C00CF5847C3CF811C0A8EB0C0C68
:10D3800007FB0CF74FF0640C97FBFCFC304F3F6839
:10D3900007F5847737F811700CEB0704642793FBCB
:10D3A000F7FC07FB1C37DFF8A8C0DCF800C00CF561
:10D3B000847C01F101083CF81880DFF894C0DCF8A7
:10D3C00000C00CF5847C3CF811C0A8EB0C0C07FBEA
:10D3D0000CF74FF0640C97FBFCFC1D4F3F6807F502
:10D3E000847737F811700CEB070516E002EB420763
:10D3F00007EBC207DFF858C0DCF800C00CEB4707AA
:10D40000BC8A571C07EB470C0CEBC707DFF840C082
:10D41000DCF800C00CEB4707BD8A06F128074FF087
:10D420000A0C97FBFCF80CFB1877A5EB040C07FB28
:10D430000CF74FF00A0C97FBFCF7381903E0044F88
:10D440003F68B7F88E00002800DAFA20BDE8F083C4
:10D450001807002070B50246002A03DB642492FB03
:10D46000F4F303E05442642594FBF5F31424B3FB76
:10D47000F4F11A291DD2192917D2B3FBF4F504FBD4
:10D480001534114D2E684D1C36F815500E4E366869
:10D4900036F81160AD1B6C43142594FBF5F40A4D6E
:10D4A0002D6835F81150601905E0074C2468608E2E
:10D4B00001E04FF47A70B0F57A7F02D8B0F5FA7FC8
:10D4C00001D24FF47A7070BD2007002030B50146BC
:10D4D000002903DA1A48006802882DE04BF68030F4
:10D4E000814203DD16480068028E25E04FF4FA60A1
:10D4F00091FBF0F0124B1B6833F810304FF4FA60D8
:10D5000091FBF0F0401C0E4C246834F810004FF4EE
:10D51000FA6491FBF4F40A4D2D6835F81440001BB1
:10D520004FF4FA6491FBF4F504FB151460434FF4D7
:10D53000FA6490FBF4F01A1802EB8200400030BD50
:10D540001C0700200F48407800F00100C0B900BF60
:10D550000C48007800F080000028F9D070200949BC
:10D56000087081210748C17100218171802005491F
:10D57000087000BF0348007800F080000028F9D050
:10D5800070470000000002402DE9F041FD4890F88E
:10D590000080FD480068FD490968461AF94800788E
:10D5A000A038132883F09081DFE810F01300F30017
:10D5B0008F0560176017EB096017210C6017621365
:10D5C0004C186017601745038407E20E751911198E
:10D5D0004818EF48808C00EB4000052190FBF1F0EB
:10D5E000EC49C98888426FDBE948808C40000521FE
:10D5F00090FBF1F0E749C988884265DC0020E649E4
:10D6000008704FF48040E5490860FF20E449087045
:10D610000020E4490860E4490880E4490880E449BE
:10D620000870E4490870E4480068B0F9000000EBB5
:10D6300080004000E14908600020E1490870E149AC
:10D640000870E14908700120E04908700020E049B5
:10D650000870E0490870E0490870E0490870E04946
:10D660000870D54800688089DE490968C988484340
:10D67000642190FBF1F0DC490860CF480068B0F904
:10D680001E00CE4909680844002804DD4FF4967056
:10D69000D649086005E0C8480068B0F91E00D349C3
:10D6A00008604020D2490870D248007800F003009A
:10D6B00010B9B6F57A7F05D9A120B249087041208A
:10D6C000CB49087000245DE061E0C4EBC400CA49A6
:10D6D00001EB80008068C94A811A904229D013DC8E
:10D6E000C74AA0EB0201904227D006DCC549084496
:10D6F00028B3C549084448BB18E0C4480844B0B141
:10D70000B0F5403F3BD113E0B1F5E02F16D006DC79
:10D71000B1F5803F0FD0B1F5003F30D10CE0B1F54D
:10D72000901F14D0BA48084480B903E000BF00BF7E
:10D7300000BF00BF00BF00BF00BF00BF00BF002090
:10D74000C4EBC401AC4A02EB8101086117E0B148A7
:10D7500000780B280BD1B048007840B94FF0FF306B
:10D76000C4EBC401A44A02EB8101086106E0002079
:10D77000C4EBC401A04A02EB8101086100BF00BFF5
:10D78000601CC4B2152CA0DB0020A449087003F073
:10D790009BB883480078002873D185490870854973
:10D7A0000870AD2077490870002468E0C4EBC4001D
:10D7B000914901EB8000806899490844F0B3994988
:10D7C0000844E0BB0120C4EBC4018B4A02EB810199
:10D7D00008611020C4EBC40102EB810108758D487B
:10D7E00000780B280CD13121C4EBC40002EB80007F
:10D7F00041750721C4EBC40002EB8000C1750CE049
:10D800002921C4EBC4007C4A02EB8000417506214B
:10D81000C4EBC40002EB8000C1750021C4EBC4005E
:10D82000754A02EB80008175FF21C4EBC40002EB56
:10D83000800001760021C4EBC40001E010E01BE091
:10D8400002EB800041760221C4EBC40002EB8000B1
:10D8500081760021C4EBC40002EB8000C1760BE0AE
:10D860006C4800780B2806D10020C4EBC401624A42
:10D8700002EB8101086100BF00BF601CC4B2152C1F
:10D8800094DB4348808C00EB4000052190FBF1F0D5
:10D890004049C988884209DB3D48808C4000052109
:10D8A00090FBF1F03B49C988884240DD5B48007835
:10D8B000FA2804DA59480078401C5849087057483B
:10D8C00000780A2836DBB1202E49087000242BE0AE
:10D8D000C4EBC400484901EB8000806848494942D4
:10D8E0000844F0B90A20C4EBC401434A02EB8101A9
:10D8F00008610020C4EBC40102EB810108754021DE
:10D90000C4EBC40002EB800041750021C4EBC400ED
:10D9100002EB80008175C4EBC40002EB8000C1758E
:10D9200000BF00BF601CC4B2152CD1DB02E0002098
:10D930003A49087041F27070864277D3B12011499C
:10D94000087000249CE0C4EBC4002B4901EB80006C
:10D9500080682C49084418B13349084488B96CE000
:10D96000C4EBC400244901EB8000002141618161C6
:10D970000A20C4EBC401204A02EB810108610120A6
:10D9800055E07AE0C20600201806002014030020AB
:10D99000F0B6FF1F74BBFF1FC306002088F00F40C6
:10D9A000BE060020700600206006002062060020EF
:10D9B000C0060020C10600200C07002074060020CD
:10D9C000CF060020D0060020C6060020CA06002090
:10D9D000CB060020CC060020CD060020300300201E
:10D9E000D3060020080700207C0600201C0300202E
:10D9F000BC060020D10600209C030020F456151818
:10DA0000F45619100CA9E1F7000015F8000009F808
:10DA100000002AFBC9060020BB06002032030020BC
:10DA20000CA9D8E700003BFB000005F82BE0C4EB95
:10DA3000C40102EB810108751FE00A20C4EBC40198
:10DA4000F84A02EB810108610020C4EBC40102EB3B
:10DA5000810108750021C4EBC40002EB8000417510
:10DA60004021C4EBC40002EB800081750021C4EBAF
:10DA7000C40002EB8000C17500BF00BF601CC4B2CF
:10DA8000152CFFF660AFE8480068408C41F2883101
:10DA9000884206DAE5480068008AE5490968884254
:10DAA00006D8E1480068408CE1490968884237D9C6
:10DAB0000120E04908700020DF490860B120DF49FB
:10DAC000087000242AE0C4EBC400D64901EB8000B2
:10DAD0008068DB490844F0B94817C4EBC401D14A57
:10DAE00002EB810108610020C4EBC40102EB81015B
:10DAF00008750121C4EBC40002EB800041750021D0
:10DB0000C4EBC40002EB80008175C4EBC40002EBDF
:10DB10008000C17500BF00BF601CC4B2152CD2DBF1
:10DB2000C8480078012840D1AA20C44908700020C4
:10DB3000C4490870002436E0C4EBC400B94901EBC5
:10DB400080008068BE49084450BB4817C4EBC4013C
:10DB5000B44A02EB810108614020C4EBC40102EB2E
:10DB600081010875B848007830B14021C4EBC40089
:10DB700002EB8000417506E00021C4EBC400A94A15
:10DB800002EB800041750021C4EBC400A54A02EB02
:10DB900080008175C4EBC40002EB8000C17500BF3A
:10DBA00000BF601CC4B2152CC6DBA8480088032146
:10DBB000B1EB103F3EDC01209E49087000209E49D9
:10DBC0000860A348007840F04000A1490870B120E7
:10DBD0009A49087000242BE0C4EBC400914901EB82
:10DBE0008000806896490844F8B94817C4EBC4011E
:10DBF0008C4A02EB810108610020C4EBC40102EBF6
:10DC0000810108750021C4EBC40002EB800041755E
:10DC10004021C4EBC40002EB800081750021C4EBFD
:10DC2000C40002EB8000C17500BF00BF601CC4B21D
:10DC3000152CD1DBABE587480078012877D100208F
:10DC400084490870A2207D490870FF223221824851
:10DC5000FAF7EDFF814800780B2803D13120804985
:10DC6000087002E029207E49087000207D49087074
:10DC700079487D490860794800780A2807D1002052
:10DC800075490870012048700020887005E0012067
:10DC90007149087048700020887064480068807A74
:10DCA0006D49C87061480068808860490968498882
:10DCB00048430A21B0FBF1F0674908715B480068EE
:10DCC00080885A490968498848430A21B0FBF1F025
:10DCD000000A6149487155480068C088534909687D
:10DCE000098848430A21B0FBF1F05B4988714F482D
:10DCF0000068C0884D490968098848430A21B0FB7B
:10DD0000F1F0000A5449C871532008725920487232
:10DD10004C2088724F20C8724E20087345204873EB
:10DD2000112252494C48FAF73DFF002413E017E056
:10DD3000C4EBC4003B4901EB800080684C49884239
:10DD400007D14FF0FF30C4EBC401364A02EB81012A
:10DD50000861601CC4B2152CEADB422045490870FA
:10DD60004548808C00EB4000052190FBF1F04349D1
:10DD7000C988884209DB4048808C4000052190FB1F
:10DD8000F1F03E49C988884240DD3D480078FA28D4
:10DD900004DA3B480078401C39490870384800785C
:10DDA0000A2836DB0026B1202449087000242AE026
:10DDB000C4EBC4001B4901EB800080682049084483
:10DDC000F0B90A20C4EBC401164A02EB81010861D4
:10DDD0000020C4EBC40102EB810108754021C4EBB3
:10DDE000C40002EB800041750021C4EBC40002EBCB
:10DDF00080008175C4EBC40002EB8000C17500BFD8
:10DE000000BF601CC4B2152CD2DB02E000201C490C
:10DE10000870B6F5FA7F7DD3B12008490870002458
:10DE200077E000009C0300200C070020080700207A
:10DE3000F8050020D006002020030020C2060020A4
