:020000040000FA
:04000000007000206C
:020000040000FA
:04000400718B0000FC
:020000040000FA
:1080000000700020718B0000838B0000858B0000C6
:10801000878B0000898B00008B8B00000000000024
:10802000000000000000000000000000A98A00001D
:108030008F8B000000000000458B0000558B000076
:10804000958B0000958B0000958B0000958B0000B0
:10805000958B0000958B0000958B0000958B0000A0
:10806000958B0000958B0000958B0000958B000090
:10807000958B0000958B0000958B0000958B000080
:1083F000958B0000958B0000958B0000FFFFFFFF21
:020000040000FA
:10840000FFFFFFFFFFFFFFFFFFFFFFFFFE7FFFFFFD
:020000040000FA
:1084100000F002F800F06AF80AA090E8000C82442C
:108420008344AAF10107DA4501D100F05FF8AFF209
:10843000090EBAE80F0013F0010F18BFFB1A43F042
:1084400001031847F45B0000345C00000A444FF05D
:10845000000C10F8013B13F0070408BF10F8014BA3
:108460001D1108BF10F8015B641E05D010F8016BE8
:10847000641E01F8016BF9D113F0080F1EBF10F84C
:10848000014BAD1C0C1B09D16D1E58BF01F801CB6F
:10849000FAD505E014F8016B01F8016B6D1EF9D5F2
:1084A0009142D6D370470000103A24BF78C878C1F3
:1084B000FAD8520724BF30C830C144BF04680C60EA
:1084C000704700000023002400250026103A28BF32
:1084D00078C1FBD8520728BF30C148BF0B60704736
:1084E0001FB500F037FC1FBD10B510BDDFF814D06C
:1084F00003B402F0B9FE03BCFFF7F2FF03F0CCFCBB
:1085000000F012FC0070002003B4FFF7EDFF03BC85
:1085100000F014FC0246D2E84F0FC2E8431F03B13B
:10852000F9E77047024652E8000F40EA010042E8CE
:10853000000303B1F7E7704710B5024652E8000F99
:1085400020EA010442E8004303B1F7E710BD10B58B
:10855000024652E8000F00EA01048C4203D0BFF348
:108560002F8F002010BD20EA010442E8004303B130
:10857000EFE710BD10B5024652E8000F084203D1E4
:10858000BFF32F8F002010BD20EA010442E8004312
:1085900003B1F1E710BD024652E8000F411C42E86A
:1085A000001303B1F8E7704710B50246D2E85F0F39
:1085B000814202D8BFF32F8F10BD441CC2E8534F35
:1085C00003B1F3E710BD10B50246D2E85F0F441CBB
:1085D000A14200D80024C2E8534F03B1F5E710BD13
:1085E000024652E8000F411E42E8001303B1F8E7CB
:1085F0007047024652E8000F10B9BFF32F8F704743
:10860000411E42E8001303B1F4E770470246D2E886
:108610005F0F10B9BFF32F8F7047411EC2E8531F81
:1086200003B1F4E77047024652E8000F10B9BFF3F8
:108630002F8F7047016842E8001303B1F4E77047D9
:1086400002680A60BFF35F8F50E8002F0B68934207
:10865000F6D140E8001303B1F2E770470246D2E8D2
:108660004F0FC2E8431F03B1F9E77047024652E8D3
:10867000000F40EA010042E8000303B1F7E770474A
:1086800010B5024652E8000F20EA010442E8004318
:1086900003B1F7E710BD10B5024652E8000F00EA3B
:1086A00001048C4203D0BFF32F8F002010BD20EABD
:1086B000010442E8004303B1EFE710BD10B50246E4
:1086C00052E8000F084203D1BFF32F8F002010BDE6
:1086D00020EA010442E8004303B1F1E710BD02467D
:1086E00052E8000F411C42E8001303B1F8E770475D
:1086F00010B50246D2E85F0F814202D8BFF32F8F38
:1087000010BD441CC2E8534F03B1F3E710BD10B5D0
:108710000246D2E85F0F441CA14200D80024C2E800
:10872000534F03B1F5E710BD024652E8000F411E5A
:1087300042E8001303B1F8E77047024652E8000F21
:1087400010B9BFF32F8F7047411E42E8001303B1E9
:10875000F4E770470246D2E85F0F10B9BFF32F8FDE
:108760007047411EC2E8531F03B1F4E77047024649
:1087700052E8000F10B9BFF32F8F7047016842E82D
:10878000001303B1F4E7704702680A60BFF35F8F1C
:1087900050E8002F0B689342F6D140E8001303B174
:1087A000F2E770470246D2E84F0FC2E8431F03B119
:1087B000F9E77047024652E8000F40EA010042E83C
:1087C000000303B1F7E7704710B5024652E8000F07
:1087D00020EA010442E8004303B1F7E710BD10B5F9
:1087E000024652E8000F00EA01048C4203D0BFF3B6
:1087F0002F8F002010BD20EA010442E8004303B19E
:10880000EFE710BD10B5024652E8000F084203D151
:10881000BFF32F8F002010BD20EA010442E800437F
:1088200003B1F1E710BD024652E8000F411C42E8D7
:10883000001303B1F8E7704710B50246D2E85F0FA6
:10884000814202D8BFF32F8F10BD441CC2E8534FA2
:1088500003B1F3E710BD10B50246D2E85F0F441C28
:10886000A14200D80024C2E8534F03B1F5E710BD80
:10887000024652E8000F411E42E8001303B1F8E738
:108880007047024652E8000F10B9BFF32F8F7047B0
:10889000411E42E8001303B1F4E770470246D2E8F4
:1088A0005F0F10B9BFF32F8F7047411EC2E8531FEF
:1088B00003B1F4E77047024652E8000F10B9BFF366
:1088C0002F8F7047016842E8001303B1F4E7704747
:1088D00002680A60BFF35F8F50E8002F0B68934275
:1088E000F6D140E8001303B1F2E770470246D2E840
:1088F0004F0FC2E8431F03B1F9E77047024652E841
:10890000000F40EA010042E8000303B1F7E77047B7
:1089100010B5024652E8000F20EA010442E8004385
:1089200003B1F7E710BD10B5024652E8000F00EAA8
:1089300001048C4203D0BFF32F8F002010BD20EA2A
:10894000010442E8004303B1EFE710BD10B5024651
:1089500052E8000F084203D1BFF32F8F002010BD53
:1089600020EA010442E8004303B1F1E710BD0246EA
:1089700052E8000F411C42E8001303B1F8E77047CA
:1089800010B50246D2E85F0F814202D8BFF32F8FA5
:1089900010BD441CC2E8534F03B1F3E710BD10B53E
:1089A0000246D2E85F0F441CA14200D80024C2E86E
:1089B000534F03B1F5E710BD024652E8000F411EC8
:1089C00042E8001303B1F8E77047024652E8000F8F
:1089D00010B9BFF32F8F7047411E42E8001303B157
:1089E000F4E770470246D2E85F0F10B9BFF32F8F4C
:1089F0007047411EC2E8531F03B1F4E770470246B7
:108A000052E8000F10B9BFF32F8F7047016842E89A
:108A1000001303B1F4E7704702680A60BFF35F8F89
:108A200050E8002F0B689342F6D140E8001303B1E1
:108A3000F2E770470246D2E84F0F411CC2E8431FDD
:108A400003B1F8E77047024652E8000F411C42E8C4
:108A5000001303B1F8E77047024652E8000F42E8FE
:108A6000001303B1F9E77047024652E8000F830193
:108A700003D3BFF32F8F0020704700F0004008435E
:108A800042E8000303B1F0E77047024652E8000FE6
:108A9000800103D2BFF32F8F0020704742E80013FC
:108AA00003B1F3E7012070471EF0040F0CBFEFF392
:108AB0000880EFF30980816911F8021C002932D186
:108AC00001B590E80F10E047BDE80050CCF8000079
:108AD000244B93E80600914208BF70471A6041B9E1
:108AE0001EF0100F10D1204B186820F00100186004
:108AF0000AE02CE9F00F1EF0100F08BF2CED108AD1
:108B000081F822E0C1F838C0906B92F8221061F031
:108B1000FF0E1EF0100F08BFB0EC108AB0E8F00F87
:108B200080F309887047114A13689942FAD801B551
:108B300052F821C00FC8E047BDE80050CCF8000053
:108B40007047000001B503F05DFEBDE80140EFF3A2
:108B5000098CBDE701B504F069F9BDE80140EFF308
:108B6000098CB5E73410002034EF00E054DF00003A
:108B7000094872B6094880470948804762B60948E3
:108B80000047FEE7FEE7FEE7FEE7FEE7FEE7FEE75B
:108B9000FEE7FEE7FEE7000000840000A5AC000051
:108BA000CDBC000011840000032A40F2308010F098
:108BB000030C00F0158011F8013BBCF1020F624478
:108BC00098BF11F801CB00F8013B38BF11F8013B09
:108BD000A2F1040298BF00F801CB38BF00F8013BB6
:108BE00011F0030300F02580083AC0F0088051F826
:108BF000043B083A51F804CBA0E80810F5E7121D31
:108C00005CBF51F8043B40F8043BAFF30080D2074F
:108C100024BF11F8013B11F801CB48BF11F8012B1B
:108C200024BF00F8013B00F801CB48BF00F8012B3E
:108C3000704710B5203AC0F00B80B1E81850203AC8
:108C4000A0E81850B1E81850A0E81850BFF4F5AFEC
:108C50005FEA027C24BFB1E81850A0E8185044BF76
:108C600018C918C0BDE810405FEA827C24BF51F8E3
:108C7000043B40F8043B08BF7047D20728BF31F8D7
:108C8000023B48BF11F8012B28BF20F8023B48BF28
:108C900000F8012B70474FF000020429C0F0128049
:108CA00010F0030C00F01B80CCF1040CBCF1020F9F
:108CB00018BF00F8012BA8BF20F8022BA1EB0C0174
:108CC00000F00DB85FEAC17C24BF00F8012B00F86A
:108CD000012B48BF00F8012B70474FF0000200B590
:108CE000134694469646203922BFA0E80C50A0E8CF
:108CF0000C50B1F12001BFF4F7AF090728BFA0E87D
:108D00000C5048BF0CC05DF804EB890028BF40F848
:108D1000042B08BF704748BF20F8022B11F0804F8A
:108D200018BF00F8012B704710B50446AFF3008060
:108D30002046BDE81040FFF7E7BB000001491820BE
:108D4000ABBEFEE726000200704740F2010CC2F203
:108D5000000C604710B505F041F800BFF1EE100AB5
:108D60000149086010BD00003CEF00E000201249FE
:108D700008601149B439C1F8B8000F4908310860DA
:108D8000091D0860091D0860091D08600A49B439F9
:108D9000C1F8CC000846D0F8940040F080000649A5
:108DA0002039086000BF04482038006800F08000C7
:108DB0000028F8D170470000B4B003402DE9F04717
:108DC00006460F4672B626B1012E07D0022E0FD1ED
:108DD00009E0154B15492824154D09E0154B164996
:108DE0000524164D04E0164B16490524164D00BF08
:108DF00000BF0868421CA24200DB002218689042B3
:108E00000ED00A6005EB0210D7E900C8D7E9029A34
:108E1000C0E900C8C0E9029A62B60020BDE8F08748
:108E200062B64FF0FF30F9E7E80C0020EC0C0020B0
:108E3000C4100020F00C0020F40C0020441300208B
:108E4000F80C0020FC0C0020941300200168C1F3F2
:108E5000405101B3416821F0604139B1012906D088
:108E6000022905D0184A1144A1B902E012E011E02C
:108E700010E01649096801F47F0151B9144982686C
:108E80000A60C2684A601149096841F47F010F4ACB
:108E9000116000BF17E04168C1F38A410A4A1144DA
:108EA00081B90A49096801F47F0151B9084982680A
:108EB0000A60C2684A600549096841F47F01034AB3
:108EC000116000BF00BF7047000078E00C0D00206B
:108ED0001C0D00201FB50024BEE0C4EBC400604997
:108EE00051F82000002879D0C4EBC40051F82000CC
:108EF0005C49884272D8C4EBC400594901EB800038
:108F0000406802280BD3C4EBC40001EB800040682A
:108F1000801EC4EBC401524A02EB81014860C4EBDD
:108F2000C4004F4901EB80004068022856D2C4EBD0
:108F3000C40051F82000C4EBC401494A02EB81018E
:108F40004860C4EBC400114601EB800000690028B2
:108F500044D072B6C4EBC400414901EB8000407BB1
:108F6000552806D1C4EBC4013D4A02EB810002F052
:108F7000E5F862B6C4EBC400394901EB8000006932
:108F800000280BDDC4EBC40001EB80000069401E2B
:108F9000C4EBC401324A02EB81010861C4EBC40096
:108FA0002F4901EB8000817B009861F355500090C0
:108FB00072B60098C0F3405088B1C4EBC400284991
:108FC00001EB80008168019861F31C00019000981A
:108FD00020F4800000F5800000900AE03BE0C4EB44
:108FE000C4001F4901EB80000189019861F39C4096
:108FF0000190009820F480100090C4EBC400184940
:1090000001EB8000017B009861F313400090C4EBFA
:10901000C400134901EB8001D1E90501CDE902014A
:1090200062B6C4EBC4010E4A02EB8101C87B6946FB
:10903000FFF7C4FE72B6C4EBC400094901EB80001F
:10904000407BAA2806D1C4EBC401054A02EB81008B
:1090500002F074F862B6641C042CFFF43EAF1FBD2E
:10906000740D0020005125020F2803D800F00F01D5
:10907000014A917670470000008000400020284996
:10908000C8730873087048708870C870B620C873B9
:109090008A200873A4200870952048709920C87011
:1090A0009B208870C4201F490860CF211E48017092
:1090B000CC21C01E0170C0201B490F390870C1218E
:1090C000184880F80111C22180F80211C32180F8EC
:1090D000031120211548A0F8FE11A0F8F61114493B
:1090E000C0F8E8111349C0F8E0110421A0F8E41118
:1090F00040F20221A0F8E6116FF00F01C0F8EC1168
:109100000D49C0F8F0110421A0F8F4110B49C0F882
:10911000F8110021A0F8FC110F200249C876704711
:1091200000100240008000400F810040009000408D
:1091300010C0FFBF80400240E413002000FEFFFF8C
:1091400020B1012807D0022811D10AE04FF0804158
:10915000084A11600BE04FF08041064A121D116071
:1091600005E04FF08041034A1C32116000BF00BF90
:1091700070470000905006400146074A12780AB92D
:10918000002008E0054AC1F3C623D25CC1F30223E4
:10919000DA4002F00100704740440020C043002044
:1091A00070B500BF0C48866900F0BCF9054600BFE9
:1091B000294609481830FFF74FFC044600BFB44267
:1091C000F0D1A54206D200BF03481030FFF73BFCA8
:1091D00000BF00BF284670BD404400202DE9F0418B
:1091E00004460D4616462046FFF7C6FF10B901207B
:1091F000BDE8F081FFF7D4FF0746A4B200BFEFF34C
:10920000058010B14FF4002000E00020044344F03A
:10921000407033462A46394600F03EF880464046C4
:10922000E6E72DE9F05F04460F4690469946DDF8E3
:1092300028A02046FFF7A0FF10B90120BDE8F09F4D
:10924000FFF7AEFF8346A4B200BFEFF3058010B175
:109250004FF4002000E00020044300F011FF4FF421
:10926000E02101EA004544EA050141F080704346EF
:109270003A46594600F010F806460EB90020DDE7E0
:1092800045F0010141F0007053464A46594600F04E
:1092900003F806463046D1E72DE9FF4F81B08846F6
:1092A00091469A464FF0070B51E000BF2E48FFF75A
:1092B000CAFB064606F00F002C4901EB00143009EA
:1092C0004FF4700101EA00510091DDE900100843FC
:1092D0004FF0805101EAD80108434FF0005101EAF4
:1092E000990108434FF0804101EA5A01084340F0D8
:1092F0004065294604F10C00FFF7B6FB054605F072
:10930000806010B385F0806585F0004505F000476A
:1093100028F000403843206029F000403843606066
:109320002AF000403843A060294604F10C00FFF702
:10933000ACFB48B100BF0C48001DFFF784FB00BF29
:10934000012005B0BDE8F08F04E0ABF1010BBBF1EB
:10935000000FAAD100BF00BF03480830FFF773FB1E
:1093600000BF0020EDE7000044440020C042002080
:10937000F0B506460C461546FF2C01D2FF2D01D351
:109380000020F0BD002200231AE001209840304068
:10939000A0B1214610E002EBD1000B4F385C01F088
:1093A000070C012707FA0CF7384302EBD107DFF867
:1093B00018C00CF80700491CA942ECD920325B1CEC
:1093C000042BE2D30120DCE7C04300202DE9F05F4D
:1093D0008246894600204149087080214048FFF7B5
:1093E0007CFC18213F4802F04FFC80463B48006A55
:1093F0003D49884208D00846384908620846A0F826
:1094000002800120C8610FE034484088404506D002
:109410003248A0F8028001203049C86104E02F489A
:10942000C069401C2D49C8612C48C06901280BD176
:1094300000202A49487048608860C8604FF48071F5
:109440002A48FFF74AFC0FE000270BE0274800EB13
:109450000715E86800F0806018B1E86820F0406007
:10946000E8607F1C102FF1D31C48C06901280FD180
:1094700000F064F804461CB100F05AF8064600E01B
:10948000002616484661002014498861086102E000
:1094900000F054F80446ECB1FE2200215046FFF7DC
:1094A00067FFEF2211460F20FFF762FFFE221146F1
:1094B0000420FFF75DFFFFF773FE83460748002394
:1094C0005946C2690A48FFF7E7FEB9F1000F01D01B
:1094D00000F010F82046BDE8F09F00004044002056
:1094E000C043002058DF00006B27A5E1C0420020E8
:1094F00000FF000310B50948007808B1012010BD35
:10950000012006490870FFF74BFE044600231A4667
:1095100021460348FFF7C0FE0120F0E74044002049
:1095200001FF00030148406870470000001000E0A0
:1095300001480068704700001C10002006480068C1
:1095400040F08070044908600448006840F0010061
:109550000249086001207047FCED00E0001000E0C7
:1095600010B50446002221460148FFF737FE10BD22
:1095700001F3010010B50446002221460148FFF71F
:109580002DFE10BD05F3020010B504460022214651
:109590004FF47340FFF722FE10BD000010B50446E3
:1095A000002221460148FFF719FE10BD03F3020017
:1095B00010B50446002221460148FFF70FFE10BDFA
:1095C0000DF5020010B50446002221464FF471400B
:1095D000FFF704FE10BD70B504460D462A4621462D
:1095E0004FF21910FFF7FAFD70BD000010B50446E8
:1095F000002221460148FFF7F1FD10BD06F10100F0
:1096000010B50446002221460148FFF7E7FD10BDD2
:1096100013F1010010B5002211460248FFF7DEFDEC
:1096200010BD000001F1010010B5002211460248F2
:10963000FFF7D4FD10BD000002F1020010B50022BA
:1096400011460248FFF7CAFD10BD000007F10100F6
:1096500010B5002211460248FFF7C0FD10BD000002
:1096600008F10200F8B504460D4616461F4633467B
:109670002A46214602480097FFF7D3FDF8BD0000B7
:1096800001F0020070B504460D462A462146024804
:10969000FFF7A4FD70BD000004F00200F8B5044619
:1096A0000D461646002033462A46214600900248C1
:1096B000FFF7B7FDF8BD000005F00200F8B504465D
:1096C0000D4616461F4633462A4621460248009755
:1096D000FFF7A7FDF8BD000003F00200F8B504464F
:1096E0000D461646002033462A4621460090024881
:1096F000FFF797FDF8BD000002F00200F8B5044640
:109700000D461646002033462A46214600904FF467
:109710003C30FFF786FDF8BD70B504460D462A467D
:1097200021460248FFF75AFD70BD000003FA02000F
:1097300070B504460D462A4621464FF47A40FFF79D
:109740004DFD70BDF8B504460D4616461F4633461E
:109750002A46214602480097FFF763FDF8BD000046
:109760000CFA0100F8B504460D46164600203346B3
:109770002A46214600900248FFF753FDF8BD00003D
:109780000DFA020010B50446002221460148FFF7F9
:1097900025FD10BD0EFA020070B504460D462A469E
:1097A00021460248FFF71AFD70BD000009FA0200C9
:1097B00070B504460D462A4621460248FFF70EFDC5
:1097C00070BD00000AFA020070B504460D462A4634
:1097D00021460248FFF702FD70BD00000BFA0200AF
:1097E00070B504460D462A4621460248FFF7F6FCAE
:1097F00070BD000010FA0200F8B504460D4616468A
:109800001F4633462A46214602480097FFF709FDC6
:10981000F8BD000006FA0100F8B504460D461646EC
:10982000002033462A46214600900248FFF7F9FC03
:10983000F8BD000007FA020010B5044600222146D8
:109840000148FFF7CBFC10BD08FA020070B50446D2
:109850000D462A4621460248FFF7C0FC70BD0000B5
:109860000FFA020070B504460D462A46214602480A
:10987000FFF7B4FC70BD000006F7010070B50446A8
:109880000D462A4621460248FFF7A8FC70BD00009D
:1098900007F7020010B50446002221460148FFF7F1
:1098A0009DFC10BD08F7020070B504460D462A461F
:1098B00021460248FFF792FC70BD000009F7020044
:1098C00070B504460D462A4621460248FFF786FC3D
:1098D00070BD000003F7020010B5044600222146C7
:1098E0000148FFF77BFC10BD0EF7010010B50446E0
:1098F000002221460148FFF771FC10BD0FF702005E
:1099000070B504460D462A4621464FF47740FFF7CE
:1099100065FC70BD10B50446002221460148FFF7E2
:109920005DFC10BD01F7010010B504460022214680
:109930000148FFF753FC10BD0AF7020010B50446BA
:10994000002221460148FFF749FC10BD0BF701003A
:1099500070B504460D462A4621460248FFF73EFCF4
:1099600070BD00000CF7020010B50446002221462D
:109970000148FFF733FC10BD08F8020070B504463B
:109980000D462A4621460248FFF728FC70BD00001C
:1099900016F2030070B504460D4616462EB1324647
:1099A00021460548FFF71AFC05E02A4621460248F1
:1099B0002938FFF713FC70BD2CF2020010B50446E5
:1099C000002221460148FFF709FC10BD1CF20200ED
:1099D00070B504460D462A4621464FF47240FFF703
:1099E000FDFB70BD10B5002211460248FFF7F6FBE3
:1099F00010BD00001AF20100F8B504460D461646E7
:109A00001F4633462A46214602480097FFF709FCC5
:109A1000F8BD000009F4020010B5044600222146FA
:109A20000148FFF7DBFB10BD08F4020010B5044647
:109A3000002221460148FFF7D1FB10BD15F20200BC
:109A4000F8B504460D461646002033462A46214600
:109A500000900248FFF7E5FBF8BD000001F20100AD
:109A600010B50446002221460148FFF7B7FB10BDA0
:109A700018F2030010B50446002221460148FFF702
:109A8000ADFB10BD19F2020070B504460D462A4622
:109A900021460248FFF7A2FB70BD000017F2030049
:109AA00070B504460D462A4621460248FFF796FB4C
:109AB00070BD000001F60200082866D2DFE800F061
:109AC00004111D2935414D592822314BDA601A46BF
:109AD0009268521C4A436423B2FBF3F32C4A13618D
:109AE00053E028232A4A53619268521C4A43642354
:109AF000B2FBF3F3264A936147E02823244AD3615B
:109B00009268521C4A436423B2FBF3F3204A136267
:109B10003BE028231E4A53629268521C4A43642346
:109B2000B2FBF3F31A4A93622FE02823184AD36258
:109B30009268521C4A436423B2FBF3F3144A136342
:109B400023E02823124A53639268521C4A43642339
:109B5000B2FBF3F30E4A936317E028230C4AD36356
:109B60009268521C4A436423B2FBF3F3084A13641D
:109B70000BE06923064A53649268521C4A436423EB
:109B8000B2FBF3F3024A936400BF00BF70470000CA
:109B9000008003400F48006820F080400D49E03904
:109BA000C1F8E0000846D0F8E00040F08240C1F87B
:109BB000E0000948406D40F00400074948654FF453
:109BC0007F00086000204866086740F28260886075
:109BD00070470000E050064000800340082866D22D
:109BE000DFE800F004111D2935414D592822314B81
:109BF000DA601A469268521C4A436423B2FBF3F3BC
:109C00002C4A136153E069232A4A53619268521C1B
:109C10004A436423B2FBF3F3264A936147E02823C7
:109C2000244AD3619268521C4A436423B2FBF3F383
:109C3000204A13623BE028231E4A53629268521C5A
:109C40004A436423B2FBF3F31A4A93622FE02823BA
:109C5000184AD3629268521C4A436423B2FBF3F35E
:109C6000144A136323E06923124A53639268521C17
:109C70004A436423B2FBF3F30E4A936317E02823AD
:109C80000C4AD3639268521C4A436423B2FBF3F339
:109C9000084A13640BE06923064A53649268521C15
:109CA0004A436423B2FBF3F3024A936400BF00BF4C
:109CB00070470000009003400F48006820F080408B
:109CC0000D49E439C1F8E4000846D0F8E40040F05A
:109CD0008240C1F8E4000948406D40F004000749A3
:109CE00048654FF47F00086000204866086740F22E
:109CF0008260886070470000E45006400090034096
:109D000000201F4908604FF046401E49C1F8680115
:109D100000211D4801601D491B488038016000205A
:109D20001949091F08601A481749843908603F20FB
:109D300018490860184817498039086017481849B9
:109D400008603F211348001D0160134911487C3809
:109D5000016014491248001D016000210D480830BF
:109D6000016011490B487838016010491048C0F86B
:109D7000081401200E4908620863886070470000DB
:109D8000685106400050064004A105400206030148
:109D90000103800000A50540002520008305400B3D
:109DA00000A4054083054003006420008304400AAA
:109DB00000A00540002928DDC1F30E03134AA2F8D4
:109DC0009E31C1F30E03A2F896310423C2F8883104
:109DD0000F4BC2F880310023A2F8843140F20223F5
:109DE000A2F886310023C2F88C31C2F89001042316
:109DF000A2F894318A005342044AC2F898310023F1
:109E0000A2F89C310C22034BDA7670470090004098
:109E100080A20540008000400F48407800F001001B
:109E2000C0B900BF0C48007800F080000028F9D0CD
:109E300070200949087081210748C1710021817192
:109E400080200549087000BF0348007800F08000BA
:109E50000028F9D07047000000000240D9B1C1F3DA
:109E60000E030D4AD383C1F30E03D3820223936002
:109E70001060938040F20113D3804A005242064B97
:109E8000DA60064B044A1361002393829361938343
:109E90000022034BDA767047009000404880034070
:109EA00000800040D1B1C1F30E030D4AD387C1F346
:109EB0000E03D386022393621062938440F201134F
:109EC000D3844A005342064AD362064B13630023ED
:109ED0009386936393870122034BDA7670470000E1
:109EE00000900040189003400080004001B3C1F38F
:109EF0000E03104AA2F85E30C1F30E03A2F85630EA
:109F0000022393641064A2F8443040F20113A2F8D3
:109F100046304A005342074AD364074B1365002377
:109F2000A2F854309365A2F85C300222034BDA7633
:109F300070470000009000404890034000800040BF
:109F400001B3C1F30E03104AA2F87E30C1F30E0331
:109F5000A2F87630022393661066A2F8643040F2CD
:109F60000113A2F866304A005342074AD366074BF2
:109F700013670023A2F874309367A2F87C300322A1
:109F8000034BDA76704700000090004038900340A1
:109F9000008000402F49886C2F49096821B10129B0
:109FA0001DD0022953D136E02C49096801442C4ABE
:109FB0001268891A294A11601168CA1701EB527296
:109FC000D210274B1A60194609684FF46172514349
:109FD000890A244A116001211F4A116037E0224991
:109FE00009680144214A1268891A1F4A11601168E0
:109FF000CA1701EB5272D2101C4B1A60194609683D
:10A0000001EB4102C2EBC111890A194A1160022118
:10A01000114A11601BE0174909680144164A126889
:10A02000891A144A11601168CA1701EB5272D210D2
:10A03000114B1A601946096801EB4102C2EBC111CC
:10A04000490A0E4A11600021034A116000BF00BF97
:10A050007047000000B00340240D0020340D0020A4
:10A06000280D0020400D0020380D00202C0D002070
:10A07000440D00203C0D0020300D0020480D002034
:10A0800010B50248FEF7D6FC10BD00004144002088
:10A0900001460248C08A081A70470000009000403C
:10A0A00000200B4908604FF082400949EC39C1F8A3
:10A0B000EC000420074908640C204864002005498E
:10A0C0009031086007200349C1F8940070470000F0
:10A0D000EC50064000B003402DE9F043814688462D
:10A0E000B9F1000F06D0B9F1010F07D0B9F1020F95
:10A0F0000CD107E05D4B1F251F2607E05C4B0525B3
:10A10000052603E05B4B0525052600BF00BFB8F11F
:10A11000070F13D2DFE808F00406080A0C0E10003F
:10A1200000240DE001240BE0032409E0042407E0EF
:10A13000072405E0092403E0132401E0012400BF03
:10A1400000BF4846FEF7FCFF1868C00F48B9186802
:10A1500040F00040186000BF1868C0F300500028AD
:10A16000FAD0186800F4801048B9186840F0004030
:10A17000186000BF1868C0F300500028FAD01868B3
:10A1800040F00070186000BF1868C0F3006000283D
:10A19000FAD100BF186800F000700028FAD01868E3
:10A1A000C00F48B1186820F00040186000BF186860
:10A1B000C0F300500028FAD1186840F080401860C1
:10A1C000186800F0805048B9186840F08050186056
:10A1D00000BF1868C0F300600028FAD000201861A2
:10A1E0005861186840F40030186000209861986247
:10A1F000002706E0002103F1800040F82710781CBA
:10A20000C7B2681CB7EB800FF4DB186840F0005051
:10A21000186000209864186840F4004018601868BE
:10A2200020F0FF01681C084418604FF07F4000EAEE
:10A23000046040F4901040F0100058600E4800EAAE
:10A24000445040F042001865186820F080401860C3
:10A2500000BF1868C0F300600028FAD10821B200DE
:10A2600003F1800040F82210BDE8F0830040024076
:10A270000050024000B002400000E07F00B54FF007
:10A280008040694908606949C1F828016649083178
:10A290000860091D0860091D086064498431086070
:10A2A000091F08604FF4E0606149486188154864FF
:10A2B0000864C863886348630863C862C8608860CC
:10A2C0005C4948640864C863886348630863C8627B
:10A2D0000862400048610861C860886040104860BA
:10A2E00008605549486408644000C86388634010AA
:10A2F0008862486208624000C86088604FF4C060AD
:10A300004860086088154D49486440000864C86387
:10A310004010886348630863C86288624FF4C06075
:10A32000486208628815C861886148610861C86030
:10A330008860486008604FF4C06041490864C863A1
:10A34000881588634FF4C060C86288624815486207
:10A350000862401088618860486008604FF4A0601F
:10A3600008614861002032490860486088613548CA
:10A37000354948613F2048654CF20F7032499431AD
:10A38000086032483049D431086044F247303049DF
:10A39000086008202C4988600420886001202C492E
:10A3A0004C39086002200860400227498431086067
:10A3B0000020284908602849086028490860284981
:10A3C0000860284908602849086028490860FFF7A4
:10A3D00067FEFEF7CBFC4FF400701D49883908601A
:10A3E000FFF7D8FBFFF768FCFEF748FE022018498C
:10A3F000103908600120086001210020FFF76CFE81
:10A400004FF40070124988390860FEF79EFC4FF443
:10A4100000700F4988390860FFF7FEFC4FF40040D8
:10A420001349086000BD000024510640005006405A
:10A430000090044000A0044000B0044000C004406C
:10A4400000D004400CF8030000F00F407FFF030031
:10A4500014F10F40240D0020280D00202C0D0020A9
:10A46000300D0020340D0020380D00203C0D002060
:10A4700008ED00E010B500205A4908605A4908600C
:10A480005A4908605A4908605A4908605A490860A0
:10A490005A4908605A4908605A4908605A49086090
:10A4A0005A4908605A4800210160416059480160DA
:10A4B00041604FF47A615848FEF70FFC002057497D
:10A4C000086057490860574908605749086057496C
:10A4D000086057490860574908605749086057495C
:10A4E000086000240EE040F24130554921F8140084
:10A4F000544921F81400544921F81400534921F813
:10A500001400641CB4F5FA6FEDD30120504988643F
:10A510000220486404204F49086040024C4988608A
:10A5200040004860400088601020C1F8C800082042
:10A5300048494439086004204549C1F8C80032211F
:10A540000020FFF7B9FA32210120FFF7B5FA3221D6
:10A550000220FFF7B1FA32210320FFF7ADFA3221D2
:10A560000420FFF7A9FA32210520FFF7A5FA3221CE
:10A570000620FFF7A1FA32210720FFF79DFA3221CA
:10A580000020FFF72BFB32210120FFF727FB3221B0
:10A590000220FFF723FB32210320FFF71FFB3221AC
:10A5A0000420FFF71BFB32210520FFF717FB3221A8
:10A5B0000620FFF713FB32210720FFF70FFB0020D7
:10A5C00000F06EFA012000F06BFA4FF48040214950
:10A5D000091F0860FFF794FB4FF47A710E48FFF7EC
:10A5E000E9FB10BDE80C0020EC0C0020F00C002072
:10A5F000F40C0020F80C0020FC0C0020000D0020C2
:10A60000040D0020080D00200C0D0020100D00206E
:10A610001C0D0020140D00200080FF1F000E0020E4
:10A62000040E0020EC0D0020F00D0020F40D0020A1
:10A63000F80D0020FC0D0020080E00200C0E00205C
:10A64000B48FFF1F5E9FFF1F08AFFF1FB2BEFF1F2B
:10A6500000F00F4008F10F4000BFEFF3058008B194
:10A66000012070470020FCE700BFEFF3058008B130
:10A67000012070470020FCE700BFEFF3058008B120
:10A68000012070470020FCE700BFEFF3058008B110
:10A69000012070470020FCE700BFEFF3058008B100
:10A6A000012070470020FCE700BFEFF3108018B9CD
:10A6B00000BFEFF3118008B1012070470020FCE7D4
:10A6C00000BFEFF3108018B900BFEFF3118008B19D
:10A6D000012070470020FCE700BFEFF3108018B99D
:10A6E00000BFEFF3118008B1012070470020FCE7A4
:10A6F00000BFEFF3108018B900BFEFF3118008B16D
:10A70000012070470020FCE700BFEFF3108018B96C
:10A7100000BFEFF3118008B1012070470020FCE773
:10A7200000BFEFF3148000F0010080F001007047DB
:10A7300010B502465318184610BD2DE9F0410546E4
:10A7400005F12800FDF7F9FF074667B1EC6A07E05D
:10A750000121A01CFDF782FF064606B902E0A468AD
:10A76000002CF5D100E000242046BDE8F0812DE961
:10A77000F04105460C46286BA0B12E6B002701E086
:10A78000374676681EB1F078E1788842F8DB66607B
:10A79000A7600EB1B46000E0EC620FB17C6006E02F
:10A7A0002C6304E000206060A060EC622C6305F183
:10A7B0002800FDF794FFBDE8F0814A681AB1D1E99D
:10A7C00001329A6001E08A68C2628A681AB1D1E9EE
:10A7D00001235A6001E04A68026370474FF0E020AD
:10A7E000006970470948007830B1002007490870B7
:10A7F0004FF08060064908604FF0E020006940F0AB
:10A8000001004FF0E021086170470000100A0020AD
:10A8100004ED00E04FF0FF307047000010B5024635
:10A820000B4612B94FF0FF3010BD0D480068B0FB69
:10A83000F2F0411EB1F1807F02D34FF0FF30F3E719
:10A84000FF240848C47206204FF0E024206120460F
:10A8500041610020A061044C207000BFE4E70000CB
:10A860001C10002018ED00E0100A002070B504460E
:10A870000026B4F57A7F7AD83E48006820443D49E6
:10A8800008603D48006820444FF4FA61B0FBF1F2E3
:10A8900001FB1200384908603848006830BB354871
:10A8A0000068B0F5487F5DD9012034490860800315
:10A8B0003349086040203249C439C1F8040100021C
:10A8C00048604FF4FA612F48FFF7C8FA4FF4FA6175
:10A8D0002D48FFF7E7FA4FF4FA612C48FFF706FB23
:10A8E0004FF4FA612A48FFF72BFB3BE04FF4FA6084
:10A8F000FFF7CEFB274908600846006800F5FA60BC
:10A9000025490968401A4FF4FA61B0FBF1F201FBE6
:10A91000120518480068401B164908600846006880
:10A92000B0F5407F1AD20020144908604FF48040EF
:10A930001349091D086040201149C439C1F80801B4
:10A94000000288600020FEF78FFB0120FEF78CFBE1
:10A950000220FEF789FB0320FEF786FB0D48006806
:10A960000D490860044800680C49086026463046D6
:10A9700070BD0000000E0020FC0D0020040E002021
:10A98000C4F00F40B48FFF1F5E9FFF1F08AFFF1F73
:10A99000B2BEFF1F0C0E0020080E0020F80D002094
:10A9A000F0B506460B4626B1012E0BD0022E1BD168
:10A9B00011E02C4A20242C48B0F8F601C0F1200503
:10A9C0002A4911E02A4A05242748B0F8D601C0F1E7
:10A9D0000505284908E0284A05242348B0F8B601AF
:10A9E000C0F10505254900BF00BF0868A84237D05F
:10A9F000086802EB001781CFC3E90007086802EB83
:10AA00000010C07A1872086802EB0010877A5F7233
:10AA1000086802EB0010477A9F72086802EB00108A
:10AA2000077ADF72086802EB0010C77B1F730868A3
:10AA300002EB0010877B5F73086802EB0010477B16
:10AA40009F73086802EB0010077BDF730868401CE7
:10AA500008600868A04201DB002008600120F0BD0A
:10AA60000020FCE7E413002000900040000D0020CF
:10AA7000E4150020040D002034160020080D0020ED
:10AA80000548006820F01F0003490860034800786B
:10AA900000F01F000860704700B00340240D002044
:10AAA00020B1012809D0022815D10DE00B49096811
:10AAB00041F00801094A11600DE00949096841F0B7
:10AAC0000801074A116006E00649096841F00801DB
:10AAD000044A116000BF00BF7047000000800340BF
:10AAE0000090034000A003404FF080603B490860A5
:10AAF00040F201103A49C1F80401242037490831D5
:10AB0000086001203649C1F8000100E000BF334869
:10AB1000006800F080700028F8D0002031490860FB
:10AB200040F201202E49C1F8040201202D490831CC
:10AB300008602B49C1F8000200E000BF2948006806
:10AB400000F080700028F8D027482549486100E0CF
:10AB500000BF2348406900F07060B0F1007FF7D17A
:10AB600000202249086040F201101D49C1F8040389
:10AB70000020C1F808030846D0F8000340F00100A7
:10AB80001A49086000E000BF1848006800F08070B3
:10AB90000028F8D04FF080601549086040F201208D
:10ABA000091D08604FF48020091D0860012010492C
:10ABB000086000E000BF0E48006800F080700028C8
:10ABC000F8D00C480649486100E000BF04484069DD
:10ABD00000F07060B0F1C06FF7D1704700410640DF
:10ABE00000400640004206400300000200430640C9
:10ABF0000046064012000006F0B500210125214E56
:10AC00003669C6F30346741C1E4E3669C6F30366E6
:10AC1000012E06D0022E06D0032E0ED0062E26D1EF
:10AC200013E0194925E0194E366806F0010008B115
:10AC3000154E00E0164E31461BE0164E366806F003
:10AC40000300154E56F8201013E00F49134E3668D6
:10AC5000C6F30226721C114E3668C6F3044606F18E
:10AC6000100301FB03F65700B6FBF7F101E00025E6
:10AC700000BF00BF012D03D1B1FBF4F6084F3E60C9
:10AC8000F0BD00000040064000127A000842064075
:10AC900080841E000843064074DF0000084606401A
:10ACA0001C1000200B48006840F47000094908603F
:10ACB0000948006820F080400749086007480849B3
:10ACC00048600846406842F2201008604FF6FF7066
:10ACD0008860704788ED00E034EF00E020C528D997
:10ACE0000020054000BF022001F006F9FBE700004C
:10ACF00098B050228C4904A8FDF79BFF8B4B04AA07
:10AD000004218B4800F064FB00BF4FF48060894948
:10AD10000860082001F0F0F84FF480608549C839D8
:10AD2000C1F8C40069460020FFF73AFE9DF808000C
:10AD300018B101208049086002E000207E490860C7
:10AD40007D48006801286FD1002D6DD07B480088B8
:10AD500000EE100AB8EE400AB5EEC00AF1EE10FAA5
:10AD6000F3D07648408800EE100AB8EE400AB5EEFF
:10AD7000C00AF1EE10FAE8D07048808800EE100AA0
:10AD8000B8EE400AB5EEC00AF1EE10FADDD06B481D
:10AD9000C08800EE100AB8EE400AB5EEC00AF1EE27
:10ADA00010FAD2D04FF4407565480068B5FBF0F753
:10ADB00000269FE000242AE06148006806FB00406E
:10ADC0005E4931F81000A0F5004000EE100AB8EE20
:10ADD000C00A5C4800EB840080ED000A594800EB93
:10ADE000840090ED000AB5EEC00AF1EE10FA0DD223
:10ADF000544800EB840090ED000ADFED530A30EE7A
:10AE0000200A504800EB840080ED000A641C4C4886
:10AE100000688442D0DB4A484C4A4A4903684448A7
:10AE200000F080FA002460E07CE0484800EB8400F9
:10AE300090ED000A4648D0ED000A20EE200A434873
:10AE400000EB840080ED000A404800EB840090EDA8
:10AE5000000ADFED400A30EE200A3C4800EB840097
:10AE600080ED000A394800EB840090ED000ADFED28
:10AE7000360AB4EEE00AF1EE10FA0DDD334800EBCD
:10AE8000840090ED000ADFED300A30EE600A2F48B2
:10AE900000EB840080ED000A2C4800EB8400D0ED2C
:10AEA000000A254890ED000AB8EEC01A9FED290A65
:10AEB00000EE810ABCEEC00A10EE100A80B22C210E
:10AEC00090FBF1F000F158082348006820441C4929
:10AED000096806FB01004FF4FA61B0FBF1F201FBD7
:10AEE00012001E4921F81080641C15480068844235
:10AEF0009BDB761CBE42FFF65DAF40F6AA72174997
:10AF00001748FDF751FE40F6AA7214491548FDF79F
:10AF10004BFE40F6AA7211491348FDF745FE28463C
:10AF2000FFF7A4FCF1E600009CDE0000182C0020D6
:10AF3000582C0020C8F00F40680D00205CCEFF1F89
:10AF4000600D0020882A002000008047502B002040
:10AF5000640D002000000047F80D0020B48FFF1F93
:10AF60005E9FFF1F08AFFF1FB2BEFF1F1FB500206F
:10AF70000C4908600C49086000BFFFF781FD012003
:10AF800000F0BAFFFFF706F802E06846FDF75EFF43
:10AF900069460020FFF704FD0028F6D1FDF79AFF6F
:10AFA000EBE700006C0D0020700D002000BF0520B5
:10AFB00000F0A2FF4FF4007001490860F7E70000BD
:10AFC0008CF00F402DE9F04107460E46154605F07E
:10AFD000020080B905F0010030B1314607F12800C8
:10AFE000FDF7A1FC044615E0314607F12800FDF706
:10AFF000ADFC04460EE0BC6A05F0010018B104EA9D
:10B000000600B04205D105F0010018B904EA0600B7
:10B0100000B900242046BDE8F081000030B50246AA
:10B0200000230D4C606C03E00469091B0346C068F3
:10B0300010B104698C42F7D911619360D06020B1DE
:10B0400004691569641B046182600BB1DA6001E078
:10B05000014C626430BD000020100020C16811B1B5
:10B06000D0E902129160024AC16851647047000041
:10B0700020100020F0B5054625B1012D05D0022D88
:10B0800009D105E02A4B1F2205E02A4B052202E0E8
:10B09000294B052200BF00BF960003F1800050F845
:10B0A0002600C0F30364082C00D0E4BB086820F03D
:10B0B000706000F140600860C87A8E7A4FF47F4774
:10B0C00007EA06260644487A3F0207EA0040304471
:10B0D0000E7A3F0207EA06660644022000EB82076A
:10B0E00003F1800040F82760C87B8E7B4FF47F47D8
:10B0F00007EA06260644487B3F0207EA004006446A
:10B10000087B3F0207EA00600644032000EB820749
:10B1100003F1800040F8276000EB0210D1E90067DE
:10B12000C0C00020F0BDFFE74FF0FF30FAE700009D
:10B13000004002400050024000B002408268202AD5
:10B1400004D02A4B1A44002A4DD129E0284A12780B
:10B150000275274A1288130A4375264A244B1B6836
:10B1600032F8131081750B0AC375234A204B1B68F4
:10B1700032F8131001760B0A4376204A137883764F
:10B180001288130AC3761A4A1268521C184B1A60A6
:10B190001A461268B2F57A7F01D300221A6022E0C3
:10B1A000174A12780275164A1288130A437500234B
:10B1B0008375C375134A124B1B6852F8231001762E
:10B1C0000B0A43760B0C83760B0EC3760C4A12687F
:10B1D000521C0B4B1A601A461268B2F57A7F01D3E3
:10B1E00000221A6000BF00BF7047000015EED2FEBB
:10B1F0006C0D002008AFFF1FB2BEFF1FF40D002032
:10B20000700D00200080FF1F80F31488BFF36F8F44
:10B21000704710B5044601F0FBFE20B14FF0FF313E
:10B22000206800F03FFF10BD10B50446206800F014
:10B230005BFF10BD70B50446002000F073FF206076
:10B24000206808B1012504E000252146052001F011
:10B250007BF8284670BD10B5044601F0D9FE10B148
:10B26000206800F07DFF10BD10B500F091FE10BD0C
:10B2700001210020FEF7AAF8F822F0210120FEF7B4
:10B2800077F8F22211460F20FEF772F8174A0021D4
:10B29000174801F097FE17490860174A0021174820
:10B2A00001F090FE16490860164A0021164801F088
:10B2B00089FE16490860164A0021164801F082FEF0
:10B2C0001549086000BF00F04DFE0521B0FBF1F00C
:10B2D00012490860084600686421B0FBF1F010498B
:10B2E00008600A2000F008FEEDE700000CDE000018
:10B2F000E5AC00004C0D002030DE0000F1AC000099
:10B30000500D002054DE00006DAF0000540D0020F1
:10B3100078DE0000ADAF0000580D0020E40D0020E5
:10B32000E80D00202DE9F04304460D461E462B464D
:10B3300017466068A168D4F8008000BFF1EC012ACC
:10B34000B1EC013AF1EC013AB1EC014AB1EC012A5D
:10B35000D0ED005AF0EE650AD0ED015AF0EE654AE4
:10B36000D0ED025AB0EE651AD0ED035AB0EE655A30
:10B37000B44619E0F3EC011A62EEA15A43EE205AEA
:10B3800043EEA45A44EE015AB0EE650A02EE050AF5
:10B39000A7EC010AF0EE604AF0EE610AB0EE415A05
:10B3A000B0EE401AACF1010CBCF1000FE2D1E0ECC0
:10B3B000010AE0EC014AA0EC011AA0EC015A134684
:10B3C0001746A8F10108B8F1000FB7D1BDE8F08326
:10B3D0002DE9F04104460D4617461E462560A7603C
:10B3E00029013046FDF779FC6660BDE8F081000078
:10B3F00010B50246042A01DB002010BD02EB42001A
:10B4000000EBC2040B4800EBC41101F5B06302E08D
:10B41000002001F8010B9942FAD306482438007A3B
:10B4200040F00200034C243C20720020207760771B
:10B430001920E2E7882C002070B504462078012806
:10B4400002D0207805283BD16088472801D0608849
:10B4500028BB2078012814D1CB48007A00F01000D6
:10B4600020B900F0ADFB0020C7494872C648007AF9
:10B4700040F02000C44908720846007A20F010000D
:10B480000872FF20C04908700020487060788870FA
:10B49000FE20C870472088800020C88070E1BA482C
:10B4A000007A00F0200050B1B748007A20F0200068
:10B4B000B54908720846007A40F01000087270BD65
:10B4C000B148007A00F02000002873D0FF20AE4978
:10B4D0000870002048706078887020780F286AD043
:10B4E0000CDCA0F102000D286FD2DFE800F042531F
:10B4F000766EDC16F16E6E6E6E6EF00017281DD043
:10B5000006DC142870D015286FD016285DD1AEE067
:10B510001B286BD02328F9D14EE09B48007A20F0FD
:10B52000200099490872A07828B90846007A40F0AE
:10B530001000087201E000F043FB1FE1002001E071
:10B54000411CC8B29149095C0029F9D18E49C870E3
:10B5500000218D4A11710121517100219171114613
:10B56000497941F0020151718E21D1718749D16031
:10B5700004E1A078012809DAE078616800F080F938
:10B58000A27881490C3141F8220002E032207E4944
:10B590004870F3E0A178E21C002000F05BFB054658
:10B5A000022D00D18BE70DB1032D02D13320764956
:10B5B0004870E3E0E3E01AE0A21C0621002000F05E
:10B5C00049FB0546022D01D179E7D3E00DB1032DEA
:10B5D00002D133206C494870D0E0A1786A4AD21C6D
:10B5E000002000F09BF9C9E00EE01DE0BCE0E0782F
:10B5F000616800F045F964490861A178624AD21C8B
:10B60000012000F08BF9B9E0A07800F0F5FAA078FD
:10B61000FFF7EEFE5C49C870A07800EBC00101EBBB
:10B62000001059490871A9E0A078042805DAE078EB
:10B63000192802DA2079072805DD3120524948709F
:10B640000020086212E0A07800EB400101EBC0018D
:10B650004D48243000EBC110E178C1EBC10100EB93
:10B66000C100217900EBC1004749086286E0A0785B
:10B67000012805D0A078022802D0A078042802D1A1
:10B680004148006A18B931203F4948700AE0E07823
:10B69000616800F0F5F83C49096A0860A0783A4909
:10B6A000096A08716AE03848007A00F0020018B9A7
:10B6B00022203549487022E0A07820B1012808D026
:10B6C000022817D10FE0E07800F096FA16E031E09A
:10B6D00016E0E38862792179E07800F0E3F8E07819
:10B6E00000F052FA0AE0E38862792179E07800F00C
:10B6F000D9F803E031202449487000BF00BF3DE085
:10B700002148007A00F0020018B922201E49487032
:10B710000FE0A07810B1012806D102E000F050FA45
:10B7200006E000F00BFA03E031201749487000BF33
:10B7300000BF23E00221144AD170C91E5160114696
:10B74000CA680A616188A28841EA0240010C0904C2
:10B7500011B132210C4A51700D49A1F826060A494F
:10B76000497801B9ABE609E002200749C870012019
:10B77000087103E030200449487000BF00E09EE6F5
:10B7800000F0A2F900BF9AE6642C0020100E002001
:10B79000643C002070B505463848007A00F080000F
:10B7A00000B970BD0026002462E004EB440000EB09
:10B7B000C4013248243000EBC11090F87E0500F03F
:10B7C000010000B94FE004EB440000EBC4012B483A
:10B7D000243000EBC11090F87C05A84200D042E074
:10B7E00004EB440000EBC4012448243000EBC110FA
:10B7F000B0F87A05401E81B204EB440000EBC402AD
:10B800001E48243000EBC210A0F87A1501B12AE0DE
:10B8100004EB440000EBC4011848243000EBC110D5
:10B82000B0F8781504EB440000EBC4021348243050
:10B8300000EBC210A0F87A1504EB440000EBC40141
:10B840000E48243000EBC11090F87E0540F0020154
:10B8500004EB440000EBC4020848243000EBC210A3
:10B8600080F87E1500BF06F11900C6B2601CC4B294
:10B87000042C9ADB00F06AF800BF92E7642C0020E9
:10B880000246084670470000054841F228628118C8
:10B8900002E0002200F8012B8842FAD37047000032
:10B8A000642C002070B50446042C01DB002070BD20
:10B8B00004EB440000EBC405174800EBC51080F80A
:10B8C0007C2503B9012304EB440000EBC4051248B6
:10B8D00000EBC510A0F87835012504EB440000EB1F
:10B8E000C4060D4800EBC610A0F87A5504EB4400DE
:10B8F00000EBC405084800EBC51080F87D15042551
:10B9000004EB440000EBC406034800EBC61080F8CB
:10B910007E550120CBE70000882C002010B50CE0FC
:10B92000094B53F820301B781370521C064B53F808
:10B9300020305B1C044C44F820300B1EA1F10104A4
:10B94000E1B2EDDC10BD0000702C00202DE9F041CB
:10B950004748407A00F0020008B1BDE8F0810025B8
:10B9600080E04348007F00EB400101EBC00140480C
:10B97000243000EBC11090F87E0500F00200002892
:10B9800064D03B48007F00EBC00101EB0010384958
:10B99000497F0844364908750846007F00EB40019E
:10B9A00001EBC0013248243000EBC1103049497F1F
:10B9B000C1EBC10100EBC106012408E056F8087B89
:10B9C0001FB139782A4814300155601CC4B2082CC4
:10B9D000F4DB00F095F82648407F401CC1B22448B3
:10B9E0004177007F00EB400202EBC0022048243088
:10B9F00000EBC21090F87D05814226DD00201C4935
:10BA000048770846007F00EB400101EBC001184871
:10BA1000243000EBC11090F87E0520F0020114489C
:10BA2000007F00EB400202EBC0021148243000EB23
:10BA3000C21080F87E150E48007F401CC0B20C4931
:10BA40000877042801DB002008770EE00848007F13
:10BA5000401CC0B206490877042801DB00200877A3
:10BA6000681CC5B2042DFFF67CAF00BF00BF74E7B1
:10BA7000642C00201FB50446009820F4001000F547
:10BA800000100090009820F4702000F50020009035
:10BA9000009820F4800000F580000090009820F4C9
:10BAA000801000900749019861F31C000190206804
:10BAB00002906068039069460020FDF77FF901203D
:10BAC00004B010BD0100881F10B50C48407A00F08A
:10BAD000700030B10948407A40F0010007494872CF
:10BAE0000BE00648407A40F01000044948720846CE
:10BAF000FFF7C0FF00200149487210BD642C0020F0
:10BB000010B50D48407A00F0700030B10A48407A14
:10BB100040F00200084948720CE00748407A40F0C3
:10BB200020000549487201F11400FFF7A3FF00202F
:10BB30000149487210BD0000642C0020002016E06E
:10BB400000EB400101EBC0020E4901EBC21191F87C
:10BB50007E15042909D1012200EB400101EBC0034D
:10BB6000084901EBC31181F87E25411CC8B20428A5
:10BB7000E6DB04492439097A41F08001014A243A7C
:10BB800011727047882C00200146042901DB002037
:10BB90007047012201EB410000EBC103074800EBB5
:10BBA000C31080F87E2505482438007A40F08000D4
:10BBB000024A243A10720120EAE70000882C002093
:10BBC00000200BE0002200EB400101EBC00309491B
:10BBD00001EBC31181F87E25411CC8B20428F1DBBA
:10BBE00004492439097A21F08001024A243A117269
:10BBF00070470000882C002010B50146042900DBA6
:10BC000010BD002301EB410202EBC104104A02EB1C
:10BC1000C41282F87E3500200EE000EB400202EBF9
:10BC2000C0030B4A02EBC31292F87E2502F0010218
:10BC300002B1E5E7421CD0B20428EEDB044A243A04
:10BC4000127A22F08002024B243B1A7200BFD7E71F
:10BC5000882C002010B503460CE01478094850F8F1
:10BC600023000470074850F82300401C054C44F89A
:10BC70002300521C081EA1F10104E1B2EDDC0120F9
:10BC800010BD0000702C002030B502464FF6FF704A
:10BC900018E012F8015B80EA052008230FE000F4A9
:10BCA00000443CB14FF6FF7404EA400041F2210425
:10BCB000604003E04FF6FF7404EA40005B1E002B77
:10BCC000EDD1491E0029E4D130BD000008B5104A6D
:10BCD0001268009200210F4A0F4B9A4213D00020A5
:10BCE00006E00D4A52F820200A4B43F82020401C61
:10BCF0000A4A084BD21AB0EB920FF2D31A465DF8FB
:10BD000021301A6003E0044A5DF821301A6008BD52
:10BD100070DF000000800000008000000080FF1F36
:10BD20002DE9F05F05460F4690469A4600BF00BFDA
:10BD30002E4636B13078FA2803D117B1BAF1000F88
:10BD400008D06FF003013046FDF7F2FC6FF00300FE
:10BD5000BDE8F09F3046FEF7F0FC0446CCB104F19C
:10BD60000C013846726AFCF71FFFB8F1000F02D0D1
:10BD7000E07888F80000E66000BF00BFA3465846A0
:10BD800000F084FD39463046FDF760FD4FF00009B4
:10BD900005E039463046FDF723FD6FF002094846BD
:10BDA000D6E72DE9F05F06460F4691469A4600BF5A
:10BDB00000BF354635B12878FA2803D117B1BAF15A
:10BDC000000F08D06FF003012846FDF7B1FC6FF0BB
:10BDD0000300BDE8F09F05F10C0000F0B2FB044643
:10BDE000D4B1394604F10C006A6AFCF7DDFEF92093
:10BDF00020700020A07084F803906760A56000BFE9
:10BE000000BFA346584600F041FD39462846FDF7DD
:10BE1000C3FC4FF0000805E039462846FDF7D4FC86
:10BE20006FF002084046D4E770B50B48B0F8546094
:10BE30005630FCF733FD58B1314607485A30FCF70D
:10BE40000AFD05460448C06D50F8254000BF00E0DB
:10BE50000024204670BD0000201000202DE9F04194
:10BE600006460C48B0F8547039465630FCF7E4FCEE
:10BE7000B8420BDA394607485830FCF7ECFC044668
:10BE80000448C06D40F82460012500E000252846E4
:10BE9000BDE8F0812010002072B64FF40070134905
:10BEA0000860FEF721FEFEF7A7FEFEF7E7F94FF464
:10BEB00000700E498C39C1F88C00FEF7DBFA62B6CF
:10BEC00000F066F84FF4007008490860FFF7DCFCEA
:10BED000074A0021074801F075F800F02BF8012807
:10BEE00001D100F071F800BFFEE700008CF00F40B8
:10BEF000E8DD000071B2000070B505462846FDF788
:10BF00002FFBFEF7A9FB10B9FEF7CEFB30B16FF0A7
:10BF10000500FDF739FB6FF0050406E000BF284679
:10BF2000DFF80CC000DF044600BF204670BD0000F3
:10BF300031D0000010B5FEF797FB28B9FEF7C0FB23
:10BF400010B9FEF7EDFB18B101F08EF8044605E0DC
:10BF500000BFDFF80CC000DF044600BF204610BD64
:10BF600069D0000010B5FEF77FFB10B9FEF7A8FB03
:10BF700018B101F085F8044605E000BFDFF80CC0F9
:10BF800000DF044600BF204610BD000081D0000045
:10BF900010B500F0EBF9FDF73DFBFEF765FB10B9BE
:10BFA000FEF78EFB30B16FF00500FDF70BFB6FF075
:10BFB000050405E000BFDFF80CC000DF044600BF49
:10BFC000204610BD95D0000010B5FDF737FBFEF7F9
:10BFD0004BFB10B9FEF774FB30B16FF00500FDF7B5
:10BFE000F1FA6FF0050405E000BFDFF80CC000DFD8
:10BFF000044600BF204610BDADD200002DE9F0413F
:10C0000080460D4616461F463B4632462946404668
:10C01000FDF798FBFEF730FB10B9FEF75DFB38B17A
:10C020003B46324629464046FFF77AFE044609E081
:10C0300000BF3B46324629464046DFF810C000DFCD
:10C04000044600BF2046BDE8F081000081D3000017
:10C050002DE9F04180460D4616461F463B463246C6
:10C0600029464046FDF7C8FBFEF706FB10B9FEF770
:10C0700033FB38B13B46324629464046FFF791FE36
:10C08000044609E000BF3B46324629464046DFF8F9
:10C0900010C000DF044600BF2046BDE8F08100006C
:10C0A00031D6000070B506460D4629463046FDF7EC
:10C0B000D9FBFEF7E9FA10B9FEF71AFB38B16FF0B9
:10C0C00005013046FDF71CFC6FF0050407E000BFDA
:10C0D00029463046DFF80CC000DF044600BF20468A
:10C0E00070BD000049D7000070B505462846FDF731
:10C0F000F3FBFEF7C9FA10B9FEF7FAFA38B16FF0A0
:10C1000005012846FDF7FCFB6FF0050406E000BFC3
:10C110002846DFF80CC000DF044600BF204670BD93
:10C1200055D8000070B505462846FDF7F3FBFEF72D
:10C13000ABFA10B9FEF7DCFA30B16FF00501002060
:10C14000FDF7DEFB002406E000BF2846DFF80CC048
:10C1500000DF044600BF204670BD000039D9000052
:10C1600070B505462846FDF7E9FBFEF78DFA10B9D4
:10C17000FEF7BEFA38B16FF005012846FDF7C0FBA7
:10C180006FF0050406E000BF2846DFF80CC000DFB2
:10C19000044600BF204670BDE5D90000062809D23C
:10C1A000DFE800F008030405060704E003E002E00E
:10C1B00001E000E000BF00BF00BFFEE700BF56483F
:10C1C0000078FF2805D15448006820F0FF0052494C
:10C1D00008605148008800F47F40B0F57F4F05D1DA
:10C1E0004D48006820F47F404B4908604A48006889
:10C1F00000F47F00B0F57F0F08D14848FFF71CF925
:10C200004548006820F47F0043490860FFF7AAFE14
:10C21000054643480068A84229D0414805600A20E5
:10C22000B5FBF0F100FB1150012802D10020FFF70F
:10C23000B1FA1920B5FBF0F100FB1150022802D130
:10C240000120FFF7A7FA3220B5FBF0F100FB1150F7
:10C25000032802D10220FFF79DFA6420B5FBF0F11C
:10C2600000FB1150042802D10320FFF793FA2A485B
:10C27000006800F07F40B0F17F4F05D1264800688C
:10C2800020F07F4024490860264800682649096854
:10C29000884210D072B623480068441C282C00DB6A
:10C2A0000024224800EB04110020FEF7E3FE08B949
:10C2B0001C48046062B61E4800681E49096888422E
:10C2C00010D072B61A480068441C052C00DB00240C
:10C2D000194800EB04110120FEF7CCFE08B9144800
:10C2E000046062B6154800681549096888423FF441
:10C2F00066AF72B611480068441C052C00DB0024B0
:10C30000104800EB04110220FEF7B4FE08B90B48F8
:10C31000046062B653E700000C0D00201C0D0020E5
:10C32000100D0020E80C0020EC0C0020C4100020B0
:10C33000F00C0020F40C002044130020F80C002026
:10C34000FC0C00209413002070B504460D462946CD
:10C350002046FDF740F929462046FFF71FFF70BD34
:10C360000148007A704700002010002070472DE936
:10C37000F84F0446894690462CB1B9F1000F02D01F
:10C3800028F0030040B10023424649462046FDF70D
:10C3900069F90020BDE8F88F09F10807F81D20F0C1
:10C3A000070708212046FEF7C3F9054600BF2868A5
:10C3B000A0EB050A686820F00300AAEB000ABA4562
:10C3C00000D30BE02D6828680028F0D100234246F6
:10C3D00049462046FDF746F90020DBE700BF00BFD5
:10C3E00000BF201D61683944616000BF00BF206844
:10C3F000A0F1080B59462046FEF79AF9064600BF01
:10C4000000BF61687068814203D900BF00BF6068E7
:10C410007060686840B947EA0800686008212846EB
:10C42000FEF786F9009011E0686820F003012846C5
:10C43000FEF77EF906462868306047EA080070601B
:10C440002E6008213046FEF773F9009042464946B7
:10C450002046009BFDF706F900989BE72DE9F04187
:10C4600005460F4605B13FB9002239462846FDF77B
:10C4700035F90020BDE8F08100213846FEF758F973
:10C480008046A8F10808002608212846FEF750F942
:10C49000044609E02646246834B900223946284675
:10C4A000FDF71CF90020E5E74445F3D100BF00BFCC
:10C4B000281D6968626822F00302891A696016B94A
:10C4C0000020606001E02068306001223946284683
:10C4D000FDF704F90120CDE72DE9F04104460D46B2
:10C4E0003CB104F0070020B905F0070008B9182D89
:10C4F00007D2002229462046FDF700F90020BDE8BA
:10C50000F08100BF00BF27463D6010207860082101
:10C510002046FEF70DF90646A5F108012046FEF774
:10C5200007F93060002031680860102031684860E9
:10C5300000207060012229462046FDF7DFF8012027
:10C54000DDE770B504462CB900210846FDF79AF8DE
:10C55000002070BD04F11400FCF765F8054615B124
:10C56000201DFCF718F829462046FDF78BF82846D1
:10C57000EFE770B504460D462CB1E068A84202D83A
:10C580002069A84208D86FF0030229462046FDF72B
:10C5900085F86FF0030070BD294604F11400FCF724
:10C5A0004FF8201DFCF71CF8002229462046FDF715
:10C5B00075F80020EFE72DE9F04704460F46904656
:10C5C0001E4624B11FB1B8F1000F00D016B90020EB
:10C5D000BDE8F087276000206060C4F80880E6604E
:10C5E000666107FB086020613346424639462046B3
:10C5F000FDF764F8354604E005EB0809C5F800903E
:10C600004D46781E071EF7D128600120E0E72DE98E
:10C61000F05F0546A87800283CD0EC682946204603
:10C62000FEF7CBF800202870294604F10C00FFF734
:10C63000A0FFA06800286CD004F10C00FFF781FF78
:10C640000646002E65D000BF00BFA346584600F046
:10C65000D8FA804600221146404600F0CBFB404607
:10C6600000F042FB0746D7F80490494606F10C005B
:10C67000626AFCF799FAF92030700020B070387ABD
:10C68000F07031462046FEF772F849462046FDF725
:10C690008FF83EE0AC68D5F80490A06880B3A0683D
:10C6A000407883282DD149462046FDF781F800BF08
:10C6B00000BFA346584600F0A4FA80460022114667
:10C6C000404600F097FB404600F00EFB0746D7F8C7
:10C6D00004A005F10C015046626AFCF765FAB868DF
:10C6E00010B1E878B968087051462046FDF7AEF8F9
:10C6F00000202870294604F10C00FFF73AFF08E0FB
:10C70000FFE749462046FDF753F829462046FEF745
:10C710002EF8BDE8F09F000070B54FF0FF350749D7
:10C720008A6EC86E082100F0BFFE044600BF0448B0
:10C73000C464C06C00B10025284670BD90DF0000C5
:10C74000201000202DE9F0410646344629E06769B3
:10C75000E07800F0080018B3002020760021204681
:10C76000FDF7F6F8A068D8B100BF00BFA04640466C
:10C7700000F047FA054600221146284600F03AFB31
:10C78000E56000202061E86A6061E86A08B1E86A53
:10C790000461EC620120207601212046FDF784F837
:10C7A0003C46002CD3D1BDE8F0812DE9F04780460E
:10C7B000894698F8030000F0020000B3D8F80C4056
:10C7C00094F92170E56A00BFE87800F0020050B1EA
:10C7D000AE684E4500D1B6682EB196F92000B84239
:10C7E00001DD96F920706D69002DEDD194F92000DE
:10C7F000B84204D084F82070204600F03AFABDE830
:10C80000F087000070B500BFFFF70EFB044604B9C7
:10C8100034E02078F13809282ED2DFE800F0052D29
:10C820000D2D2D151D2D250000BF00BF25461648D6
:10C83000016E2846884720E000BF00BF2546124809
:10C84000416E2846884718E000BF00BF25460E48C5
:10C85000816E2846884710E000BF00BF25460A4881
:10C86000C16E2846884708E000BF00BF254606483D
:10C87000016F2846884700E000BFC5E700BF0020E1
:10C8800000F03EF970BD00002010002010B50446F5
:10C890002046FFF7E3FA68B10948407A30B900BF93
:10C8A0004FF080500749086000BF07E001210448AD
:10C8B000817203E021460220FFF746FD10BD000013
:10C8C0002010002004ED00E02DE9F0410446012095
:10C8D000607094F920700B4800BF0646B56801E00F
:10C8E0002E46AD681DB195F92000B842F8DCE6602F
:10C8F000A560B46005B1EC602046FDF7B1F8BDE875
:10C90000F08100003C10002010B502460B465C1C74
:10C910008CB90021154C206B01E00146006900280C
:10C92000FBD1D36151610024146109B10A611BE09C
:10C930000E4C226318E000210C4CE06A03E0C4694D
:10C940001B1B0146006910B1C4699C42F7D9D36131
:10C950005161106109B10A6101E0044CE26218B151
:10C96000C469E41AC461426110BD000020100020B7
:10C97000C169491C81B9016911B1D0E90421516132
:10C98000416929B1D0E9041211610021416119E026
:10C990000E4902690A6315E0016941B10169C9697B
:10C9A000C26911440269D161D0E904215161416930
:10C9B00029B1D0E9041211610021416102E003496B
:10C9C0000269CA620021C161704700002010002086
:10C9D00070B53A48C46A04B970BDE069401EE061B0
:10C9E000E069002867D100BF6078632833D008DC95
:10C9F00013280DD033280FD0432811D0532840D10D
:10CA000015E073282ED083282DD0932839D131E01A
:10CA10002046FCF7AFFD35E02046FCF7FDFF31E096
:10CA2000204600F01EF90646FCF7C2FD2AE020462B
:10CA300000F017F9054600BF00BF00BF00BF2E463B
:10CA400021463046FFF7B1FE00BF00BF2E463046FC
:10CA5000FCF720FF16E0204600F003F90646FCF73D
:10CA600083FF0FE00EE0204600F0FBF80646FCF7DF
:10CA700089FE07E0204600F0F4F80646FCF7DCFEED
:10CA800000E000BF00BF204600F02EF906683146E6
:10CA90002046FCF7F9FF204600F0D6F8204600F0CB
:10CAA00017F9246914B1E06900289DD00CB1002069
:10CAB00060610248C46200BF8EE7000020100020C1
:10CAC00010B50446E07800F0010018B9204600F0E7
:10CAD0004DF80EE0042060700020E0600748406BD5
:10CAE000A0600648406B10B10448406BC460034826
:10CAF00044632046FCF762FF10BD000020100020B8
:10CB00002DE9F0410546FFF72BFC074600F060F8E1
:10CB10000646A5B91448446A022F22D10CB394F9F1
:10CB2000200096F9201088421BDD204600F08CF88A
:10CB30003046FFF7C9FE204600F02AF911E0022F27
:10CB40000CD195F9200096F92010884206DD304678
:10CB5000FFF7BAFE284600F01BF902E0284600F075
:10CB6000B7F8BDE8F08100002010002010B50446A1
:10CB7000002060702070A07800F0020078B1A078EA
:10CB800000F0100030B1114A216BD2F88400FFF799
:10CB9000F0FC04E00D4A216B506FFFF75FFCA078BA
:10CBA00000F0010080B10948D0F8880030B1074991
:10CBB000D1F888002146FFF7DCFC05E00349D1F8F5
:10CBC00080002146FFF74AFC10BD00002010002025
:10CBD00001484069704700002010002010B504464D
:10CBE000A06938B100221146A06900F003F9A069DC
:10CBF000FCF71CFF6078232802D10020A16888611F
:10CC000010BD0146886882688A6082681AB100BFD8
:10CC100000BF8268D1600022C260704730B5024612
:10CC200091F9204000BF00BF1346986801E0034619
:10CC3000806818B190F92050A542F8DACB6088607E
:10CC4000996000B1C16030BDC16849B1D0E902123C
:10CC50009160816811B1D0E90221D1600021C160E9
:10CC600070470146084600E0C0680278F12AFBD010
:10CC7000704770B50646344600E0E46814B1207889
:10CC8000F128FAD000BF00BF254635B13046FFF786
:10CC9000DBFF31462846FFF7C1FF70BD70B5044683
:10CCA0006078332813D194F823202046616AFEF778
:10CCB00089F905465DB100222946204600F09AF820
:10CCC00094F8231023462A46606AFCF795FE70BD4F
:10CCD00010B504460120607021460248FFF79EFF10
:10CCE00010BD00003C100020014691F8222002F007
:10CCF00010030BB9602300E020238A6B981870475B
:10CD00000149486170470000201000200149486136
:10CD1000704700002010002001460A6B886B90428B
:10CD200004D9086B0068034A904201D00020704784
:10CD30000120FCE7A52E5AE270B50025114800211C
:10CD4000826D114800F00AFF044600BF0F4884625C
:10CD50000C48406E98B10B49486E804780B9094B2A
:10CD6000DA6D0A4BD96C074B186E00F0F7FE0446DB
:10CD700000BF06488464806C10B1012500E00125E5
:10CD8000284670BD90DF0000BDC1000020100020CB
:10CD900010B5044602206070024884612046FCF70A
:10CDA00069FE10BD2010002070B504460E46FFF746
:10CDB000D7FA022801D0002070BD0D48406A08B99A
:10CDC0000020F9E7FFF704FF054631462846FCF747
:10CDD000D5FD6C7031462846FFF796FD04481C309F
:10CDE000FFF70FFF05462846FFF7D2FF0120E3E7D4
:10CDF000201000202DE9F04106460C46154621463C
:10CE00003046FCF741FE3046FFF76EFF07463C60B8
:10CE10003046FFF7ADFD1DB13046FFF771FE02E071
:10CE20003046FFF755FFBDE8F081000010B5FDF773
:10CE3000D5FC2448C068401C2249C860FFF7C8FDE3
:10CE40000020FFF75DFE1F48006D10B11D49086D01
:10CE500080471C48006C002833D01A488469C06B96
:10CE6000A04206D01748C463E06910B91548006CA9
:10CE7000E061E06910B1E069401EE061E06900BB7B
:10CE800000BF1048007A02281BD10E48446AC4B182
:10CE900094F92010C06B90F92000814211D12046F6
:10CEA000FFF7D2FE0749C86BFFF712FF0549C86BB1
:10CEB000FCF7D6FD2046FFF76BFF0248C463006C09
:10CEC000E06110BD2010002010B54FF0FF34FFF7D7
:10CED00023FC18B90249034801650024204610BD0F
:10CEE00015CF0000201000201CB505462E4600BFBF
:10CEF0004FF0FF33002269463046FFF77FF80446C3
:10CF0000002CF5D1DDE90001FCF7CAFDDDE90010D8
:10CF10008847EDE72DE9F0412148446C0CB9BDE8A4
:10CF2000F08100BF1E48456900BF2069401E206196
:10CF30002CE02046FEF792F8194900231A46C86CE7
:10CF400004F11801FFF784F806469EB100BF1448AB
:10CF50004069074612498869FFF7D8FE2146032039
:10CF6000FFF7F2F900BF0E48406910B9BD4200D189
:10CF7000002500BFE078012804D120466169FEF752
:10CF80004DF801E0012060700548446C14B120693F
:10CF90000028CED02846FFF7B9FE00BFBFE700004B
:10CFA00020100020FCF71EFD00BFDFF814C000DFDA
:10CFB00000BF4FF0FF310020FCF70AFD00BFFEE785
:10CFC000F5DA00002DE9F04107460D4616463246D7
:10CFD00029463846FCF734FDFDF75EFB10B9FDF736
:10CFE00093FB30B16FF005010020FCF7F1FC002449
:10CFF00008E000BF324629463846DFF810C000DF9F
:10D00000044600BF2046BDE8F08100005DDB000063
:10D0100010B50648007830B9FEF78CFF012802DD14
:10D020000120024908700148007810BD1A10002044
:10D0300070B5044634B96FF00300FCF7A5FA6FF041
:10D04000030070BD21461320FFF7AEFE20B120463D
:10D05000FCF7A4FA002505E04FF0FF30FCF794FA46
:10D060004FF0FF352846ECE710B500BF0348007AC3
:10D0700004462046FCF7BAFA204610BD20100020D6
:10D0800010B50349C868FCF7BBFA0148C06810BD79
:10D090002010002010B58348007A012803D1FCF746
:10D0A000C3FA002010BD7F48007A30B14FF0FF3046
:10D0B000FCF788FA4FF0FF30F4E77B48C168794805
:10D0C000C1657948008A7749A1F85400764881689B
:10D0D00074480164744A116BD06AFFF7FDF920B1FE
:10D0E0007148C16A6F48C0F880106F4A91695069F1
:10D0F000FFF7F2F920B16C4840696A49486704E0DB
:10D100006848D0F8800067494867674A116AD06963
:10D11000FFF7E2F920B16448C1696248816703E022
:10D120006048D0F8801081675F4A916A506AFFF7C3
:10D13000D3F920B15C48416A5A48C16703E05948B5
:10D14000D0F88010C1675848406B88B1564C646B6A
:10D15000E368554C646BA268534C646B2168524C75
:10D16000606BFFF728FA2046406B4E49C1F88400F7
:10D170004D48806B88B14C4CA46BE3684A4CA46B5F
:10D18000A268494CA46B2168474CA06BFFF713FAC7
:10D190002046816B4348C0F888104348C06B88B173
:10D1A000414CE46BE368404CE46BA2683E4CE46B9A
:10D1B00021683D4CE06BFFF7FEF92046C16B394812
:10D1C000C0F88C103848006C88B1374C246CE36888
:10D1D000354C246CA268344C246C2168324C206C91
:10D1E000FFF7E9F92046016C2E48C0F890102E4850
:10D1F000406C88B12C4C646CE3682B4C646CA26866
:10D20000294C646C2168284C606CFFF7D4F92046E7
:10D21000416C2448C0F894102348806C88B1224C9B
:10D22000A46CE368204CA46CA2681F4CA46C216819
:10D230001D4CA06CFFF7BFF92046816C1948C0F85F
:10D2400098101948C06C88B1174CE46CE368164C10
:10D25000E46CA268144CE46C2168134CE06CFFF79A
:10D26000AAF92046C16C0F48C0F89C100E48006D0A
:10D2700088B10D4C246DE3680B4C246DA2680A4CF8
:10D28000246D2168084C206DFFF795F92046016D4B
:10D290000448C0F8A010012002490872FCF7C4F944
:10D2A0000020FFE62010002090DF000010B530487D
:10D2B000007A012806D06FF00600FCF783F94FF0E2
:10D2C000FF3010BDFFF738FD30B94FF0FF30FCF7ED
:10D2D00079F94FF0FF30F4E700BFFF23254A93723E
:10D2E000927A62F0FF02D243B2FA82F2C2F12001D6
:10D2F00000BF204A0C3A1268C2F30222104688424C
:10D3000000D3411CFE228A40D3B21A4A183AD3777E
:10D3100000BF194948681949FDF780FA30B14FF04C
:10D32000FF30FCF74FF94FF0FF30CAE7FDF772FA14
:10D330000F490861FDF756FA0D481C30FFF761FCF4
:10D3400004462046FFF724FD0B48007800F001005A
:10D3500018B10220FDF758FF02E00320FDF754FF4B
:10D36000022003490872FCF773F90020A9E70000C6
:10D370002010002018ED00E090DF0000558B000029
:10D380002DE9FF5F0646894692461F4600BF00BF53
:10D3900034462CB12078FA2802D1B9F1000F09D116
:10D3A0006FF003012046FCF7C3F96FF0030004B0EF
:10D3B000BDE8F09F2046FDF7C0F90546002D4DD091
:10D3C00029462046FDF7F9F905F10C014846626A45
:10D3D000FBF7EAFBBAF1000F02D0E8788AF8000008
:10D3E00049462046FCF732FA00202870294604F10D
:10D3F0000C00FFF7BEF8A06868B304F10C00FFF75B
:10D40000A0F805463DB300BF00BF20460194FFF7DA
:10D41000F8FB0390012200210398FFF7EBFC03982F
:10D42000FFF762FC8346DBF804000290626A05F1B4
:10D430000C000299FBF7B8FBF92028700020A870B7
:10D440009BF80800E87029462046FDF790F9204631
:10D450000299FCF7ADF94FF0000821E0D7B13A4648
:10D4600049462046FCF77EF939468320FFF79CFCAD
:10D4700050B100BF0B484069019000BF00942046A6
:10D480000199FFF7CBFB02E02046FCF77BF96FF038
:10D49000010805E049462046FCF7A2F96FF00208B2
:10D4A000404684E7201000202DE9FC5F07468846AF
:10D4B00015464FB1B8F1000F06D0B7FA87F0B8FAA9
:10D4C00088F10844202807D26FF003010020FCF700
:10D4D0002FF90020BDE8FC9F08F1030020F00300B5
:10D4E00000F10C0B07FB0BF00190A5B3286800902E
:10D4F000AC682E69D5F814A064B104F0030010B92B
:10D50000E86834280FD26FF008010020FCF710F90A
:10D510000020DFE7E86830B16FF008010020FCF779
:10D5200007F90020D6E766B106F0030010B90198AC
:10D53000824515D26FF009010020FCF7F9F80020B0
:10D54000C8E7BAF1000F0BD06FF009010020FCF71B
:10D55000EFF80020BEE7FFE700200090002400263F
:10D56000ACB93148D0F8A00030B12F49D1F8A000B3
:10D57000FEF7E7FF044607E02B490122D1F88000BF
:10D580003421FEF7F4FE04464FF0010901E04FF0AC
:10D59000000924B31EBB24490022C86F0199FEF77D
:10D5A000E6FE0646AEB909F0010080B11E48D0F88B
:10D5B000A00030B11C49D1F8A0002146FEF7D9FFE8
:10D5C00005E01949D1F880002146FEF747FF002405
:10D5D00003E030460199FBF75EFB49F00209DCB13C
:10D5E000FA20207084F80290009860600020A0600B
:10D5F000C4F82480A062E062206333465A4639466C
:10D6000004F10C00FEF7D7FF0849074801672046E0
:10D610006168FCF781F804E06FF004010020FCF77A
:10D6200087F8204656E70000201000200FC60000B3
:10D630002DE9FF4F83B006469246984600BF00BFD3
:10D64000344624B12078FA2801D1049848B96FF003
:10D6500003012046FCF76CF86FF0030007B0BDE84B
:10D66000F08FA06858B3A0684078832827D120465F
:10D670000499FCF79DF800BF00BF20460194FFF716
:10D68000C0FA0290012200210298FFF7B3FB029832
:10D69000FFF72AFB8146D9F804B0626A584604991C
:10D6A000FBF782FAD9F8080018B1D9F8080080F819
:10D6B00000A059462046FCF7C9F800273FE004F1D6
:10D6C0000C00FEF73EFF0546ADB1626A05F10C00A5
:10D6D0000499FBF769FAF92028700020A87085F8F2
:10D6E00003A029462046FDF742F820460499FCF79E
:10D6F0005FF8002723E0B8F1000F1AD04246204619
:10D700000499FCF789F841469320FFF74DFB50B18F
:10D7100000BF0C484069019000BF00942046019969
:10D72000FFF77CFA02E02046FCF786F86FF001076D
:10D7300005E020460499FCF747F86FF002073846E9
:10D740008CE70000201000202DE9F04707468846AE
:10D7500000BF00BF3C4600BF3D484069054645B993
:10D760006FF007012046FCF7CBF84FF0FF30BDE823
:10D77000F08714B12078F52807D06FF00301204618
:10D78000FCF7BEF86FF00300F1E7207E88B9E56092
:10D7900000202061E86A6061E86A08B1E86A046113
:10D7A000EC6201202076217E2046FCF77DF80026E1
:10D7B0004CE0E07800F00100B0B1E068A84213D17D
:10D7C000207EFF2807D16FF00F012046FCF798F864
:10D7D0006FF002063AE0207E401C2076217E204633
:10D7E000FCF762F8002631E0B8F1000F29D0E078AC
:10D7F00000F0020070B1E06890F9200095F9201067
:10D80000884207DA95F82000E16881F82000E06896
:10D81000FFF72FFA41462046FCF730F841465320E7
:10D82000FFF7C2FA38B100BF00BFA14629464846FB
:10D83000FFF7F4F902E02046FCF72CF86FF0010640
:10D8400004E02046FCF770F86FF0020630468EE7E1
:10D85000201000202DE9F047074600BF00BF3C46DE
:10D8600014B12078F52808D06FF003012046FCF7AA
:10D8700047F86FF00300BDE8F087207E00283DD018
:10D88000E668606910B1D4E904010861206918B143
:10D89000D4E90410486101E06069F06296F92180E2
:10D8A000F56A0EE0E87800F0020048B1A86838B1E7
:10D8B000A86890F92000404502DDA86890F9208012
:10D8C0006D69002DEED196F92000404504D086F810
:10D8D00020803046FFF7CDF90BE000BF00BFA14626
:10D8E0004846FFF78EF906460022D11E3046FFF764
:10D8F00081FAA0680028F0D1FFF702F9002020701B
:10D90000A07800F0010080B10A48D0F8940030B14E
:10D910000849D1F894002146FEF72BFE05E00549A1
:10D92000D1F880002146FEF799FD2046FBF7DEFF87
:10D930000020A0E7201000202DE9F0410546DDB1D0
:10D94000D5F800806E68AC686CB104F0030010B9C3
:10D95000E8681C2814D26FF008010020FBF7D0FF04
:10D960000020BDE8F081E86850B16FF008010020A8
:10D97000FBF7C6FF0020F4E74FF000080026002464
:10D98000A4B91748D0F8940030B11549D1F89400E3
:10D99000FEF7D7FD044607E011490122D1F88000C7
:10D9A0001C21FEF7E4FC0446012700E0002784B1B7
:10D9B000F5202070A770E670C4F804800020A060F5
:10D9C000E06020616061207620466168FBF778FFA7
:10D9D00004E06FF004010020FBF792FF2046C0E74F
:10D9E000201000202DE9F047074600BF00BF3C464D
:10D9F00000BF3F484069054645B96FF00701204622
:10DA0000FBF77EFF4FF0FF30BDE8F08714B12078C0
:10DA1000F52807D06FF003012046FBF771FF6FF088
:10DA20000300F1E7207E38B96FF00E012046FBF7C6
:10DA300067FF6FF00200E7E7E068A84207D06FF0E9
:10DA40000D012046FBF75CFF6FF00200DCE7207E53
:10DA5000401E2076217E2046FBF77AFF207E00289C
:10DA600044D1606910B1D4E904010861206918B19A
:10DA7000D4E90410486101E06069E86295F9218009
:10DA8000EE6A0EE0F07800F0020048B1B06838B1FC
:10DA9000B06890F92000404502DDB06890F9208020
:10DAA0007669002EEED185F82080A068D8B100BF3D
:10DAB00000BFA1464846FFF7A4F8054600221146DC
:10DAC0002846FFF797F9E56000202061E86A606169
:10DAD000E86A08B1E86A0461EC620120207601215D
:10DAE0002046FBF7E1FE0020FFF70AF800208BE755
:10DAF0002010002070B5FEF733FC022802D1164832
:10DB0000406A00B970BDFFF763F80446E06AFEF7AB
:10DB100019FE2046FFF762F80F481C30FFF771F836
:10DB20000546FFF735F900BFEFF30980A0632046F3
:10DB3000FFF7F2F838B908498869FFF7E1F821469C
:10DB40000120FEF701FC0020FFF7DAF82046FEF77F
:10DB5000B7FF00BFD6E70000201000202DE9F74FE7
:10DB600082B09046029840B96FF003010020FBF7A5
:10DB70002FFF002005B0BDE8F08FB8F1000F45D0B1
:10DB8000D8F800000090D8F804000190D8F80840B8
:10DB9000D8F81060D8F81450D8F818906CB104F088
:10DBA000030018B9D8F80C00442810D26FF008010F
:10DBB0000020FBF70DFF0020DCE7D8F80C0030B1A7
:10DBC0006FF008010020FBF703FF0020D2E756B1F9
:10DBD00006F0070000B935B96FF00A010020FBF725
:10DBE000F7FE0020C6E7B9F1000F02D14FF0180987
:10DBF00014E0B9F1010F02DBB9F1380F0EDD6FF05F
:10DC00000B010020FBF7E4FE0020B3E700200090AA
:10DC100001900024002600254FF0180975B105F089
:10DC2000070020B9482D02D3B5F1004F06D36FF09D
:10DC30000A010020FBF7CCFE00209BE7ACB962484C
:10DC4000D0F8880030B16049D1F88800FEF779FC3F
:10DC5000044607E05C490122D1F880004421FEF728
:10DC600086FB04464FF0010A01E04FF0000A7CB346
:10DC700076BBBDB95548456D5348D0F8840048B1CE
:10DC80005149D1F88400FEF75CFC06468EB14AF09B
:10DC9000100A0EE04C490022486F2946FEF767FB48
:10DCA000064606E048490022486F2946FEF75FFB1A
:10DCB0000646AEB90AF0010088B14348D0F88800A2
:10DCC00038B14149D1F888002146FEF752FC06E000
:10DCD00008E03D49D1F880002146FEF7BFFB002453
:10DCE0004AF0020A002C63D0F120207001206070FD
:10DCF00084F802A00198E070009860600020A060A5
:10DD0000E06020616061A061E0614FFA89F084F811
:10DD100020004FFA89F084F82100FD2084F82200C9
:10DD2000002084F823006062A062E06226636563DD
:10DD300070194038A0630298E063374624483E4695
:10DD400038602248007800F0040060B11120C0EB78
:10DD5000950B05E03F1D4FF0CC303860ABF1010B67
:10DD6000BBF1000FF6D1A76B4FF0000B04E00020D1
:10DD700047F82B000BF1010BBBF10D0FF7D1154844
:10DD800078630298B863114A127802F00100029A8F
:10DD900002F001014FF08072FA63039838620E4876
:10DDA0000949086620466268E16BFBF7F3FD04E071
:10DDB0006FF004010020FBF70BFE14B12046FEF7C4
:10DDC0009FFE2046D6E600002010002090DF0000D5
:10DDD000A52E5AE2A5CF00009DCC00004FF0407068
:10DDE000E1EE100A70470000000000000000000093
:10DDF0000000000000000000881600200004000061
:10DE000022000000000000000000000000000000F0
:10DE1000000000000000000000000000881A002040
